{
  "contractName": "MaterialProvider",
  "abi": [
    {
      "constant": true,
      "inputs": [],
      "name": "materialListCount",
      "outputs": [
        {
          "internalType": "uint256",
          "name": "",
          "type": "uint256"
        }
      ],
      "payable": false,
      "stateMutability": "view",
      "type": "function"
    },
    {
      "constant": true,
      "inputs": [
        {
          "internalType": "uint256",
          "name": "",
          "type": "uint256"
        }
      ],
      "name": "materials",
      "outputs": [
        {
          "internalType": "address",
          "name": "materialId",
          "type": "address"
        },
        {
          "internalType": "bytes32",
          "name": "commandId",
          "type": "bytes32"
        },
        {
          "internalType": "uint256",
          "name": "aluminiumBars",
          "type": "uint256"
        },
        {
          "internalType": "uint256",
          "name": "stainlessSteelSheets",
          "type": "uint256"
        },
        {
          "internalType": "uint256",
          "name": "bumperRubberBands",
          "type": "uint256"
        },
        {
          "internalType": "uint256",
          "name": "interiorLightBulbs",
          "type": "uint256"
        },
        {
          "internalType": "uint256",
          "name": "displayLeds",
          "type": "uint256"
        },
        {
          "internalType": "uint256",
          "name": "springs",
          "type": "uint256"
        },
        {
          "internalType": "uint256",
          "name": "speakers",
          "type": "uint256"
        }
      ],
      "payable": false,
      "stateMutability": "view",
      "type": "function"
    },
    {
      "constant": true,
      "inputs": [
        {
          "internalType": "uint256",
          "name": "index",
          "type": "uint256"
        }
      ],
      "name": "getMaterials",
      "outputs": [
        {
          "internalType": "uint256",
          "name": "",
          "type": "uint256"
        },
        {
          "internalType": "uint256",
          "name": "",
          "type": "uint256"
        },
        {
          "internalType": "uint256",
          "name": "",
          "type": "uint256"
        },
        {
          "internalType": "uint256",
          "name": "",
          "type": "uint256"
        },
        {
          "internalType": "uint256",
          "name": "",
          "type": "uint256"
        },
        {
          "internalType": "uint256",
          "name": "",
          "type": "uint256"
        },
        {
          "internalType": "uint256",
          "name": "",
          "type": "uint256"
        }
      ],
      "payable": false,
      "stateMutability": "view",
      "type": "function"
    },
    {
      "constant": true,
      "inputs": [],
      "name": "getAddress",
      "outputs": [
        {
          "internalType": "address",
          "name": "",
          "type": "address"
        }
      ],
      "payable": false,
      "stateMutability": "view",
      "type": "function"
    },
    {
      "constant": false,
      "inputs": [],
      "name": "createMaterials",
      "outputs": [
        {
          "internalType": "uint256",
          "name": "",
          "type": "uint256"
        }
      ],
      "payable": false,
      "stateMutability": "nonpayable",
      "type": "function"
    }
  ],
  "bytecode": "0x60806040526000805534801561001457600080fd5b50610781806100246000396000f3fe608060405234801561001057600080fd5b50600436106100575760003560e01c80630773ca111461005c57806338cc48311461007a578063680a9283146100c45780637a8e852614610130578063c312fa0a146101d6575b600080fd5b6100646101f4565b6040518082815260200191505060405180910390f35b610082610471565b604051808273ffffffffffffffffffffffffffffffffffffffff1673ffffffffffffffffffffffffffffffffffffffff16815260200191505060405180910390f35b6100f0600480360360208110156100da57600080fd5b8101908080359060200190929190505050610479565b6040518088815260200187815260200186815260200185815260200184815260200183815260200182815260200197505050505050505060405180910390f35b61015c6004803603602081101561014657600080fd5b8101908080359060200190929190505050610616565b604051808a73ffffffffffffffffffffffffffffffffffffffff1673ffffffffffffffffffffffffffffffffffffffff168152602001898152602001888152602001878152602001868152602001858152602001848152602001838152602001828152602001995050505050505050505060405180910390f35b6101de610684565b6040518082815260200191505060405180910390f35b600080600790506000600290506000600c90506000601890506000600a90506000601090506102216106e7565b600061023187898888888861068a565b905033826000019073ffffffffffffffffffffffffffffffffffffffff16908173ffffffffffffffffffffffffffffffffffffffff1681525050808260200181815250506004880282604001818152505060028602600689020182606001818152505060028602826080018181525050600488028260a0018181525050600483028261010001818152505086848601018260c0018181525050600286028260e0018181525050600080815480929190600101919050555081600160008054815260200190815260200160002060008201518160000160006101000a81548173ffffffffffffffffffffffffffffffffffffffff021916908373ffffffffffffffffffffffffffffffffffffffff1602179055506020820151816001015560408201518160020155606082015181600301556080820151816004015560a0820151816005015560c0820151816006015560e0820151816007015561010082015181600801559050506002829080600181540180825580915050906001820390600052602060002090600902016000909192909190915060008201518160000160006101000a81548173ffffffffffffffffffffffffffffffffffffffff021916908373ffffffffffffffffffffffffffffffffffffffff1602179055506020820151816001015560408201518160020155606082015181600301556080820151816004015560a0820151816005015560c0820151816006015560e0820151816007015561010082015181600801555050506000549850505050505050505090565b600033905090565b60008060008060008060008073ffffffffffffffffffffffffffffffffffffffff16600160008a815260200190815260200160002060000160009054906101000a900473ffffffffffffffffffffffffffffffffffffffff1673ffffffffffffffffffffffffffffffffffffffff16141561055c576040517f08c379a00000000000000000000000000000000000000000000000000000000081526004018080602001828103825260128152602001807f4c69737420646f65736e2774206578697374000000000000000000000000000081525060200191505060405180910390fd5b6001600089815260200190815260200160002060020154600160008a815260200190815260200160002060030154600160008b815260200190815260200160002060040154600160008c815260200190815260200160002060050154600160008d815260200190815260200160002060060154600160008e815260200190815260200160002060070154600160008f8152602001908152602001600020600801549650965096509650965096509650919395979092949650565b60016020528060005260406000206000915090508060000160009054906101000a900473ffffffffffffffffffffffffffffffffffffffff16908060010154908060020154908060030154908060040154908060050154908060060154908060070154908060080154905089565b60005481565b60008686868686866040516020018087815260200186815260200185815260200184815260200183815260200182815260200196505050505050506040516020818303038152906040528051906020012090509695505050505050565b604051806101200160405280600073ffffffffffffffffffffffffffffffffffffffff1681526020016000801916815260200160008152602001600081526020016000815260200160008152602001600081526020016000815260200160008152509056fea265627a7a7231582079356de702f904a6b0dc36b69cf00c0fac46c3b0e3dd5088897c9969f8cd650864736f6c63430005100032",
  "source": "pragma solidity >=0.5.0;\n// pragma experimental ABIEncoderV2;\n\n\ncontract MaterialProvider {\n\n    struct Materials{\n        address materialId;\n        bytes32 commandId;\n        uint aluminiumBars;\n        uint stainlessSteelSheets;\n        uint bumperRubberBands;\n        uint interiorLightBulbs;\n        uint displayLeds;\n        uint springs;\n        uint speakers;\n\n    }\n\n    uint public materialListCount = 0;\n\n    mapping(uint => Materials) public materials;\n\n\n\n    Materials[] materialList;\n\n\n    function getMaterials(uint index) public view returns (uint, uint, uint, uint, uint, uint, uint){\n        require(materials[index].materialId != address(0), \"List doesn't exist\");\n        return (materials[index].aluminiumBars, materials[index].stainlessSteelSheets, materials[index].bumperRubberBands, materials[index].interiorLightBulbs, materials[index].displayLeds, materials[index].springs, materials[index].speakers);\n    }\n\n    function getUniqueHash(uint amountOfControllers , uint amountOfShafts, uint amountOfDoors, uint amountOfButtons, uint amountOfDisplays, uint amountOfSpeakers) private pure returns (bytes32){\n        return keccak256(abi.encode(amountOfControllers , amountOfShafts, amountOfDoors, amountOfButtons, amountOfDisplays, amountOfSpeakers));\n    }\n    function getAddress() public view returns (address){\n        return msg.sender;\n    }\n\n     function createMaterials() public returns (uint){\n        // Fake variables from ProjectOffice\n        uint amountOfShafts = 7;\n        uint amountOfControllers = 2;\n        uint amountOfDoors = 12;\n        uint amountOfButtons = 24;\n        uint amountOfDisplays = 10;\n        uint amountOfSpeakers = 16;\n\n        Materials memory new_material;\n        bytes32 commandId = getUniqueHash(amountOfControllers , amountOfShafts, amountOfDoors, amountOfButtons, amountOfDisplays, amountOfSpeakers);\n        new_material.materialId = msg.sender;\n        new_material.commandId = commandId;\n        new_material.aluminiumBars = amountOfShafts*4;\n        new_material.stainlessSteelSheets = amountOfShafts*6 + amountOfDoors*2;\n        new_material.bumperRubberBands = amountOfDoors*2;\n        new_material.interiorLightBulbs = amountOfShafts*4;\n        new_material.speakers = amountOfSpeakers *4;\n        new_material.displayLeds = amountOfButtons + amountOfDisplays + amountOfControllers ;\n        new_material.springs = amountOfDoors*2;\n        materialListCount++;\n        materials[materialListCount] = new_material;\n        materialList.push(new_material);\n        return materialListCount;\n     }\n}\n",
  "sourcePath": "/home/cristiane/blockchain/drizzle-react-tutorial/contracts/MaterialProvider.sol",
  "compiler": {
    "name": "solc",
    "version": "0.5.16+commit.9c3226ce.Emscripten.clang"
  },
  "schemaVersion": "3.3.4",
  "updatedAt": "2021-04-16T02:01:29.303Z",
  "devdoc": {
    "methods": {}
  },
  "userdoc": {
    "methods": {}
  }
}