{
  "contractName": "MaterialsProvider",
  "abi": [
    {
      "constant": true,
      "inputs": [],
      "name": "buttons",
      "outputs": [
        {
          "internalType": "int256",
          "name": "",
          "type": "int256"
        }
      ],
      "payable": false,
      "stateMutability": "view",
      "type": "function"
    },
    {
      "constant": true,
      "inputs": [],
      "name": "controller",
      "outputs": [
        {
          "internalType": "int256",
          "name": "",
          "type": "int256"
        }
      ],
      "payable": false,
      "stateMutability": "view",
      "type": "function"
    },
    {
      "constant": true,
      "inputs": [],
      "name": "displays",
      "outputs": [
        {
          "internalType": "int256",
          "name": "",
          "type": "int256"
        }
      ],
      "payable": false,
      "stateMutability": "view",
      "type": "function"
    },
    {
      "constant": true,
      "inputs": [],
      "name": "doors",
      "outputs": [
        {
          "internalType": "int256",
          "name": "",
          "type": "int256"
        }
      ],
      "payable": false,
      "stateMutability": "view",
      "type": "function"
    },
    {
      "constant": true,
      "inputs": [],
      "name": "shafts",
      "outputs": [
        {
          "internalType": "int256",
          "name": "",
          "type": "int256"
        }
      ],
      "payable": false,
      "stateMutability": "view",
      "type": "function"
    },
    {
      "constant": true,
      "inputs": [],
      "name": "speakers",
      "outputs": [
        {
          "internalType": "int256",
          "name": "",
          "type": "int256"
        }
      ],
      "payable": false,
      "stateMutability": "view",
      "type": "function"
    },
    {
      "constant": false,
      "inputs": [
        {
          "internalType": "int256",
          "name": "x",
          "type": "int256"
        }
      ],
      "name": "setController",
      "outputs": [],
      "payable": false,
      "stateMutability": "nonpayable",
      "type": "function"
    },
    {
      "constant": false,
      "inputs": [
        {
          "internalType": "int256",
          "name": "x",
          "type": "int256"
        }
      ],
      "name": "setShafts",
      "outputs": [],
      "payable": false,
      "stateMutability": "nonpayable",
      "type": "function"
    },
    {
      "constant": false,
      "inputs": [
        {
          "internalType": "int256",
          "name": "x",
          "type": "int256"
        }
      ],
      "name": "setDoors",
      "outputs": [],
      "payable": false,
      "stateMutability": "nonpayable",
      "type": "function"
    },
    {
      "constant": false,
      "inputs": [
        {
          "internalType": "int256",
          "name": "x",
          "type": "int256"
        }
      ],
      "name": "setButtons",
      "outputs": [],
      "payable": false,
      "stateMutability": "nonpayable",
      "type": "function"
    },
    {
      "constant": false,
      "inputs": [
        {
          "internalType": "int256",
          "name": "x",
          "type": "int256"
        }
      ],
      "name": "setDisplays",
      "outputs": [],
      "payable": false,
      "stateMutability": "nonpayable",
      "type": "function"
    },
    {
      "constant": false,
      "inputs": [
        {
          "internalType": "int256",
          "name": "x",
          "type": "int256"
        }
      ],
      "name": "setSpeakers",
      "outputs": [],
      "payable": false,
      "stateMutability": "nonpayable",
      "type": "function"
    }
  ],
  "bytecode": "0x6080604052600160005560018055600060025560006003556000600455600060055534801561002d57600080fd5b506103168061003d6000396000f3fe608060405234801561001057600080fd5b50600436106100b45760003560e01c8063bec889e911610071578063bec889e91461019d578063cca4dc3f146101bb578063d9017d45146101e9578063f55fc09914610207578063f77c479114610235578063f8e622e514610253576100b4565b806335991911146100b95780633c26041d146100d75780635aea1d76146101055780635d9de95e14610133578063752f00a614610151578063980048751461016f575b600080fd5b6100c1610281565b6040518082815260200191505060405180910390f35b610103600480360360208110156100ed57600080fd5b8101908080359060200190929190505050610287565b005b6101316004803603602081101561011b57600080fd5b8101908080359060200190929190505050610291565b005b61013b61029b565b6040518082815260200191505060405180910390f35b6101596102a1565b6040518082815260200191505060405180910390f35b61019b6004803603602081101561018557600080fd5b81019080803590602001909291905050506102a7565b005b6101a56102b1565b6040518082815260200191505060405180910390f35b6101e7600480360360208110156101d157600080fd5b81019080803590602001909291905050506102b7565b005b6101f16102c1565b6040518082815260200191505060405180910390f35b6102336004803603602081101561021d57600080fd5b81019080803590602001909291905050506102c7565b005b61023d6102d1565b6040518082815260200191505060405180910390f35b61027f6004803603602081101561026957600080fd5b81019080803590602001909291905050506102d7565b005b60025481565b8060058190555050565b8060048190555050565b60045481565b60035481565b8060038190555050565b60015481565b8060008190555050565b60055481565b8060018190555050565b60005481565b806002819055505056fea265627a7a72315820244dc354f8c591d627013bf01042e6ef456442337725f9e73b083d8b97c320ec64736f6c63430005100032",
  "source": "pragma solidity >=0.5.0;\n\ncontract MaterialsProvider {\n  int public controller = 1;\n  int public shafts = 1;\n  int public doors = 0;\n  int public buttons = 0;\n  int public displays = 0;\n  int public speakers = 0;\n  \n  function setController(int x) public {\n    controller = x;\n  }\n\n  function setShafts(int x) public {\n    shafts = x;\n  }\n\n  function setDoors(int x) public {\n    doors = x;\n  }\n\n  function setButtons(int x) public {\n    buttons = x;\n  }\n  function setDisplays(int x) public {\n    displays = x;\n  }\n  function setSpeakers(int x) public {\n    speakers = x;\n  }\n}",
  "sourcePath": "/home/cristiane/blockchain/drizzle-react-tutorial/contracts/MaterialsProvider.sol",
  "compiler": {
    "name": "solc",
    "version": "0.5.16+commit.9c3226ce.Emscripten.clang"
  },
  "schemaVersion": "3.3.4",
  "updatedAt": "2021-04-15T20:20:24.982Z",
  "networkType": "ethereum",
  "devdoc": {
    "methods": {}
  },
  "userdoc": {
    "methods": {}
  }
}