{
  "contractName": "MaterialProvider",
  "abi": [
    {
      "constant": true,
      "inputs": [],
      "name": "materialListCount",
      "outputs": [
        {
          "internalType": "uint256",
          "name": "",
          "type": "uint256"
        }
      ],
      "payable": false,
      "stateMutability": "view",
      "type": "function"
    },
    {
      "constant": true,
      "inputs": [
        {
          "internalType": "uint256",
          "name": "",
          "type": "uint256"
        }
      ],
      "name": "materials",
      "outputs": [
        {
          "internalType": "uint256",
          "name": "aluminiumBars",
          "type": "uint256"
        },
        {
          "internalType": "uint256",
          "name": "stainlessSteelSheets",
          "type": "uint256"
        },
        {
          "internalType": "uint256",
          "name": "bumperRubberBands",
          "type": "uint256"
        },
        {
          "internalType": "uint256",
          "name": "interiorLightBulbs",
          "type": "uint256"
        },
        {
          "internalType": "uint256",
          "name": "displayLeds",
          "type": "uint256"
        },
        {
          "internalType": "uint256",
          "name": "springs",
          "type": "uint256"
        },
        {
          "internalType": "uint256",
          "name": "speakers",
          "type": "uint256"
        }
      ],
      "payable": false,
      "stateMutability": "view",
      "type": "function"
    },
    {
      "constant": false,
      "inputs": [
        {
          "internalType": "uint256",
          "name": "amountOfShafts",
          "type": "uint256"
        },
        {
          "internalType": "uint256",
          "name": "amountOfControllers",
          "type": "uint256"
        },
        {
          "internalType": "uint256",
          "name": "amountOfDoors",
          "type": "uint256"
        },
        {
          "internalType": "uint256",
          "name": "amountOfButtons",
          "type": "uint256"
        },
        {
          "internalType": "uint256",
          "name": "amountOfDisplays",
          "type": "uint256"
        },
        {
          "internalType": "uint256",
          "name": "amountOfSpeakers",
          "type": "uint256"
        }
      ],
      "name": "createMaterials",
      "outputs": [
        {
          "internalType": "uint256",
          "name": "",
          "type": "uint256"
        },
        {
          "internalType": "uint256",
          "name": "",
          "type": "uint256"
        },
        {
          "internalType": "uint256",
          "name": "",
          "type": "uint256"
        },
        {
          "internalType": "uint256",
          "name": "",
          "type": "uint256"
        },
        {
          "internalType": "uint256",
          "name": "",
          "type": "uint256"
        },
        {
          "internalType": "uint256",
          "name": "",
          "type": "uint256"
        },
        {
          "internalType": "uint256",
          "name": "",
          "type": "uint256"
        }
      ],
      "payable": false,
      "stateMutability": "nonpayable",
      "type": "function"
    }
  ],
  "bytecode": "0x608060405234801561001057600080fd5b506103c0806100206000396000f3fe608060405234801561001057600080fd5b50600436106100415760003560e01c80636bcc4ad1146100465780637a8e8526146100e4578063c312fa0a14610150575b600080fd5b6100a4600480360360c081101561005c57600080fd5b8101908080359060200190929190803590602001909291908035906020019092919080359060200190929190803590602001909291908035906020019092919050505061016e565b6040518088815260200187815260200186815260200185815260200184815260200183815260200182815260200197505050505050505060405180910390f35b610110600480360360208110156100fa57600080fd5b8101908080359060200190929190505050610306565b6040518088815260200187815260200186815260200185815260200184815260200183815260200182815260200197505050505050505060405180910390f35b610158610348565b6040518082815260200191505060405180910390f35b600080600080600080600061018161034e565b60108e028160000181815250508b60058f020181602001818152505060028c02816040018181525050600c8e02816060018181525050600489028160c00181815250508c8a8c010181608001818152505060028c028160a00181815250506000808154809291906001019190505550806001600080548152602001908152602001600020600082015181600001556020820151816001015560408201518160020155606082015181600301556080820151816004015560a0820151816005015560c0820151816006015590505060028190806001815401808255809150509060018203906000526020600020906007020160009091929091909150600082015181600001556020820151816001015560408201518160020155606082015181600301556080820151816004015560a0820151816005015560c0820151816006015550505080600001518160200151826040015183606001518460c0015185608001518660a0015197509750975097509750975097505096509650965096509650965096565b60016020528060005260406000206000915090508060000154908060010154908060020154908060030154908060040154908060050154908060060154905087565b60005481565b6040518060e0016040528060008152602001600081526020016000815260200160008152602001600081526020016000815260200160008152509056fea265627a7a7231582002dd49f6a8b1e76879df0eae2b1367f185afd8a63cf8888afbc2bec3762bf4eb64736f6c63430005100032",
  "source": "// SPDX-License-Identifier: MIT\npragma solidity >=0.5.0;\n\ncontract MaterialProvider {\n\n    struct Materials{\n        uint aluminiumBars;\n        uint stainlessSteelSheets;\n        uint bumperRubberBands;\n        uint interiorLightBulbs;\n        uint displayLeds;\n        uint springs;\n        uint speakers;\n    }\n\n    uint public materialListCount;\n\n    mapping(uint => Materials) public materials;\n    Materials[] materialList;\n\n    function createMaterials(uint amountOfShafts, uint amountOfControllers, uint amountOfDoors, uint amountOfButtons, uint amountOfDisplays, uint amountOfSpeakers) public returns (uint,uint,uint,uint,uint,uint,uint){\n        Materials memory new_material;\n\n        new_material.aluminiumBars = amountOfShafts*16;\n        new_material.stainlessSteelSheets = amountOfShafts*5 + amountOfDoors;\n        new_material.bumperRubberBands = amountOfDoors*2;\n        new_material.interiorLightBulbs = amountOfShafts*12;\n        new_material.speakers = amountOfSpeakers *4;\n        new_material.displayLeds = amountOfButtons + amountOfDisplays + amountOfControllers ;\n        new_material.springs = amountOfDoors*2;\n\n        materialListCount++;\n        materials[materialListCount] = new_material;\n        materialList.push(new_material);\n\n        return (new_material.aluminiumBars,new_material.stainlessSteelSheets,new_material.bumperRubberBands,new_material.interiorLightBulbs,new_material.speakers,new_material.displayLeds,new_material.springs);\n    }\n}\n",
  "sourcePath": "/home/cristiane/blockchain/drizzle-react-tutorial/contracts/MaterialProvider.sol",
  "compiler": {
    "name": "solc",
    "version": "0.5.16+commit.9c3226ce.Emscripten.clang"
  },
  "schemaVersion": "3.3.4",
  "updatedAt": "2021-04-16T15:25:15.011Z",
  "networkType": "ethereum",
  "devdoc": {
    "methods": {}
  },
  "userdoc": {
    "methods": {}
  }
}