{
  "contractName": "MaterialProvider",
  "abi": [
    {
      "constant": true,
      "inputs": [],
      "name": "alumBars",
      "outputs": [
        {
          "internalType": "uint256",
          "name": "",
          "type": "uint256"
        }
      ],
      "payable": false,
      "stateMutability": "view",
      "type": "function"
    },
    {
      "constant": true,
      "inputs": [],
      "name": "leds",
      "outputs": [
        {
          "internalType": "uint256",
          "name": "",
          "type": "uint256"
        }
      ],
      "payable": false,
      "stateMutability": "view",
      "type": "function"
    },
    {
      "constant": true,
      "inputs": [],
      "name": "lightBulbs",
      "outputs": [
        {
          "internalType": "uint256",
          "name": "",
          "type": "uint256"
        }
      ],
      "payable": false,
      "stateMutability": "view",
      "type": "function"
    },
    {
      "constant": true,
      "inputs": [],
      "name": "materialListCount",
      "outputs": [
        {
          "internalType": "uint256",
          "name": "",
          "type": "uint256"
        }
      ],
      "payable": false,
      "stateMutability": "view",
      "type": "function"
    },
    {
      "constant": true,
      "inputs": [
        {
          "internalType": "uint256",
          "name": "",
          "type": "uint256"
        }
      ],
      "name": "materials",
      "outputs": [
        {
          "internalType": "uint256",
          "name": "aluminiumBars",
          "type": "uint256"
        },
        {
          "internalType": "uint256",
          "name": "stainlessSteelSheets",
          "type": "uint256"
        },
        {
          "internalType": "uint256",
          "name": "bumperRubberBands",
          "type": "uint256"
        },
        {
          "internalType": "uint256",
          "name": "interiorLightBulbs",
          "type": "uint256"
        },
        {
          "internalType": "uint256",
          "name": "displayLeds",
          "type": "uint256"
        },
        {
          "internalType": "uint256",
          "name": "springs",
          "type": "uint256"
        },
        {
          "internalType": "uint256",
          "name": "speakers",
          "type": "uint256"
        }
      ],
      "payable": false,
      "stateMutability": "view",
      "type": "function"
    },
    {
      "constant": true,
      "inputs": [],
      "name": "rubberBands",
      "outputs": [
        {
          "internalType": "uint256",
          "name": "",
          "type": "uint256"
        }
      ],
      "payable": false,
      "stateMutability": "view",
      "type": "function"
    },
    {
      "constant": true,
      "inputs": [],
      "name": "speakersProvider",
      "outputs": [
        {
          "internalType": "uint256",
          "name": "",
          "type": "uint256"
        }
      ],
      "payable": false,
      "stateMutability": "view",
      "type": "function"
    },
    {
      "constant": true,
      "inputs": [],
      "name": "springsProvider",
      "outputs": [
        {
          "internalType": "uint256",
          "name": "",
          "type": "uint256"
        }
      ],
      "payable": false,
      "stateMutability": "view",
      "type": "function"
    },
    {
      "constant": true,
      "inputs": [],
      "name": "steelSheets",
      "outputs": [
        {
          "internalType": "uint256",
          "name": "",
          "type": "uint256"
        }
      ],
      "payable": false,
      "stateMutability": "view",
      "type": "function"
    },
    {
      "constant": false,
      "inputs": [
        {
          "internalType": "uint256",
          "name": "amountOfShafts",
          "type": "uint256"
        },
        {
          "internalType": "uint256",
          "name": "amountOfControllers",
          "type": "uint256"
        },
        {
          "internalType": "uint256",
          "name": "amountOfDoors",
          "type": "uint256"
        },
        {
          "internalType": "uint256",
          "name": "amountOfButtons",
          "type": "uint256"
        },
        {
          "internalType": "uint256",
          "name": "amountOfDisplays",
          "type": "uint256"
        },
        {
          "internalType": "uint256",
          "name": "amountOfSpeakers",
          "type": "uint256"
        }
      ],
      "name": "createMaterials",
      "outputs": [
        {
          "internalType": "uint256",
          "name": "",
          "type": "uint256"
        },
        {
          "internalType": "uint256",
          "name": "",
          "type": "uint256"
        },
        {
          "internalType": "uint256",
          "name": "",
          "type": "uint256"
        },
        {
          "internalType": "uint256",
          "name": "",
          "type": "uint256"
        },
        {
          "internalType": "uint256",
          "name": "",
          "type": "uint256"
        },
        {
          "internalType": "uint256",
          "name": "",
          "type": "uint256"
        },
        {
          "internalType": "uint256",
          "name": "",
          "type": "uint256"
        }
      ],
      "payable": false,
      "stateMutability": "nonpayable",
      "type": "function"
    }
  ],
  "bytecode": "0x60806040526000805560006001556000600255600060035560006004556000600555600060065534801561003257600080fd5b50610568806100426000396000f3fe608060405234801561001057600080fd5b506004361061009e5760003560e01c80637a8e8526116100665780637a8e8526146101b95780637b0827f0146102255780638a27889414610243578063c312fa0a14610261578063ed7279371461027f5761009e565b8063452b14aa146100a3578063588f83ed146100c15780636214cf6c146100df5780636bcc4ad1146100fd5780637453cf021461019b575b600080fd5b6100ab61029d565b6040518082815260200191505060405180910390f35b6100c96102a3565b6040518082815260200191505060405180910390f35b6100e76102a9565b6040518082815260200191505060405180910390f35b61015b600480360360c081101561011357600080fd5b810190808035906020019092919080359060200190929190803590602001909291908035906020019092919080359060200190929190803590602001909291905050506102af565b6040518088815260200187815260200186815260200185815260200184815260200183815260200182815260200197505050505050505060405180910390f35b6101a3610496565b6040518082815260200191505060405180910390f35b6101e5600480360360208110156101cf57600080fd5b810190808035906020019092919050505061049c565b6040518088815260200187815260200186815260200185815260200184815260200183815260200182815260200197505050505050505060405180910390f35b61022d6104de565b6040518082815260200191505060405180910390f35b61024b6104e4565b6040518082815260200191505060405180910390f35b6102696104ea565b6040518082815260200191505060405180910390f35b6102876104f0565b6040518082815260200191505060405180910390f35b60035481565b60045481565b60005481565b60008060008060008060006102c26104f6565b60108e028160000181815250508b60058f020181602001818152505060028c02816040018181525050600c8e02816060018181525050600489028160c00181815250508c8a8c010181608001818152505060028c028160a0018181525050806000015160008190555080602001516001819055508060400151600281905550806060015160038190555080608001516004819055508060a001516005819055508060c0015160068190555060076000815480929190600101919050555080600860006007548152602001908152602001600020600082015181600001556020820151816001015560408201518160020155606082015181600301556080820151816004015560a0820151816005015560c0820151816006015590505060098190806001815401808255809150509060018203906000526020600020906007020160009091929091909150600082015181600001556020820151816001015560408201518160020155606082015181600301556080820151816004015560a0820151816005015560c0820151816006015550505080600001518160200151826040015183606001518460c0015185608001518660a0015197509750975097509750975097505096509650965096509650965096565b60065481565b60086020528060005260406000206000915090508060000154908060010154908060020154908060030154908060040154908060050154908060060154905087565b60055481565b60015481565b60075481565b60025481565b6040518060e0016040528060008152602001600081526020016000815260200160008152602001600081526020016000815260200160008152509056fea265627a7a72315820303569bb1d71783254eef9493051cd0a8ad9f75432b91a5a97a01f90912b13b464736f6c63430005100032",
  "source": "// SPDX-License-Identifier: MIT\npragma solidity >=0.5.0;\n\ncontract MaterialProvider {\n\n    uint public alumBars = 0;\n    uint public steelSheets = 0;\n    uint public rubberBands = 0;\n    uint public lightBulbs = 0;\n    uint public leds = 0;\n    uint public springsProvider = 0;\n    uint public speakersProvider = 0;\n\n    struct Materials{\n        uint aluminiumBars;\n        uint stainlessSteelSheets;\n        uint bumperRubberBands;\n        uint interiorLightBulbs;\n        uint displayLeds;\n        uint springs;\n        uint speakers;\n    }\n\n    uint public materialListCount;\n\n    mapping(uint => Materials) public materials;\n    Materials[] materialList;\n\n    function createMaterials(uint amountOfShafts, uint amountOfControllers, uint amountOfDoors, uint amountOfButtons, uint amountOfDisplays, uint amountOfSpeakers) public returns (uint,uint,uint,uint,uint,uint,uint){\n        Materials memory new_material;\n\n        new_material.aluminiumBars = amountOfShafts*16;\n        new_material.stainlessSteelSheets = amountOfShafts*5 + amountOfDoors;\n        new_material.bumperRubberBands = amountOfDoors*2;\n        new_material.interiorLightBulbs = amountOfShafts*12;\n        new_material.speakers = amountOfSpeakers *4;\n        new_material.displayLeds = amountOfButtons + amountOfDisplays + amountOfControllers ;\n        new_material.springs = amountOfDoors*2;\n\n        alumBars = new_material.aluminiumBars;\n        steelSheets = new_material.stainlessSteelSheets;\n        rubberBands = new_material.bumperRubberBands;\n        lightBulbs = new_material.interiorLightBulbs;\n        leds = new_material.displayLeds;\n        springsProvider = new_material.springs;\n        speakersProvider = new_material.speakers;\n\n        materialListCount++;\n        materials[materialListCount] = new_material;\n        materialList.push(new_material);\n\n        return (new_material.aluminiumBars,new_material.stainlessSteelSheets,new_material.bumperRubberBands,new_material.interiorLightBulbs,new_material.speakers,new_material.displayLeds,new_material.springs);\n    }\n}",
  "sourcePath": "/home/cristiane/blockchain/drizzle-react-tutorial/contracts/MaterialProvider.sol",
  "compiler": {
    "name": "solc",
    "version": "0.5.16+commit.9c3226ce.Emscripten.clang"
  },
  "schemaVersion": "3.3.4",
  "updatedAt": "2021-04-16T20:49:28.790Z",
  "networkType": "ethereum",
  "devdoc": {
    "methods": {}
  },
  "userdoc": {
    "methods": {}
  }
}