{
  "contractName": "MyStringStore",
  "abi": [
    {
      "constant": true,
      "inputs": [],
      "name": "batteries",
      "outputs": [
        {
          "internalType": "uint256",
          "name": "",
          "type": "uint256"
        }
      ],
      "payable": false,
      "stateMutability": "view",
      "type": "function"
    },
    {
      "constant": true,
      "inputs": [],
      "name": "columns",
      "outputs": [
        {
          "internalType": "uint256",
          "name": "",
          "type": "uint256"
        }
      ],
      "payable": false,
      "stateMutability": "view",
      "type": "function"
    },
    {
      "constant": true,
      "inputs": [],
      "name": "elevators",
      "outputs": [
        {
          "internalType": "uint256",
          "name": "",
          "type": "uint256"
        }
      ],
      "payable": false,
      "stateMutability": "view",
      "type": "function"
    },
    {
      "constant": true,
      "inputs": [],
      "name": "floors",
      "outputs": [
        {
          "internalType": "uint256",
          "name": "",
          "type": "uint256"
        }
      ],
      "payable": false,
      "stateMutability": "view",
      "type": "function"
    },
    {
      "constant": false,
      "inputs": [
        {
          "internalType": "uint256",
          "name": "a",
          "type": "uint256"
        },
        {
          "internalType": "uint256",
          "name": "b",
          "type": "uint256"
        },
        {
          "internalType": "uint256",
          "name": "c",
          "type": "uint256"
        },
        {
          "internalType": "uint256",
          "name": "d",
          "type": "uint256"
        }
      ],
      "name": "setData",
      "outputs": [],
      "payable": false,
      "stateMutability": "nonpayable",
      "type": "function"
    },
    {
      "constant": false,
      "inputs": [
        {
          "internalType": "uint256",
          "name": "x",
          "type": "uint256"
        },
        {
          "internalType": "uint256",
          "name": "y",
          "type": "uint256"
        }
      ],
      "name": "setBatteries",
      "outputs": [],
      "payable": false,
      "stateMutability": "nonpayable",
      "type": "function"
    }
  ],
  "bytecode": "0x6080604052601e60005560196001556000600255600060035534801561002457600080fd5b506101e4806100346000396000f3fe608060405234801561001057600080fd5b50600436106100625760003560e01c80634958bdbd1461006757806351e971031461008557806380e7f618146100a3578063abd2adbb146100ef578063bc4935251461010d578063f41fed0e14610145575b600080fd5b61006f610163565b6040518082815260200191505060405180910390f35b61008d610169565b6040518082815260200191505060405180910390f35b6100ed600480360360808110156100b957600080fd5b810190808035906020019092919080359060200190929190803590602001909291908035906020019092919050505061016f565b005b6100f7610191565b6040518082815260200191505060405180910390f35b6101436004803603604081101561012357600080fd5b810190808035906020019092919080359060200190929190505050610197565b005b61014d6101a9565b6040518082815260200191505060405180910390f35b60025481565b60005481565b8360008190555082600181905550816002819055508060038190555050505050565b60015481565b81600081905550806001819055505050565b6003548156fea265627a7a723158202925c5f75dd8ceed303272d412a55373bc41451a0c534daa2240da6ae3dc293164736f6c63430005100032",
  "source": "pragma solidity >=0.5.0;\n\ncontract MyStringStore {\n  uint256 public batteries = 30;\n  uint256 public columns = 25;\n  uint256 public elevators = 0;\n  uint256 public floors = 0;\n  \n  function setData(uint256 a, uint256 b, uint256 c, uint256 d) public {\n    batteries = a;\n    columns = b;\n    elevators = c;\n    floors = d;\n  }\n\n  function setBatteries(uint256 x, uint256 y) public {\n    batteries = x;\n    columns = y;\n  }\n\n  // function setColumns(int x) public {\n  //   columns = x;\n  // }\n\n  // function setElevators(int x) public {\n  //   elevators = x;\n  // }\n\n  // function setFloors(int x) public {\n  //   floors = x;\n  // }\n}",
  "sourcePath": "/home/cristiane/blockchain/drizzle-react-tutorial/contracts/MyStringStore.sol",
  "compiler": {
    "name": "solc",
    "version": "0.5.16+commit.9c3226ce.Emscripten.clang"
  },
  "schemaVersion": "3.3.4",
  "updatedAt": "2021-04-15T20:20:24.980Z",
  "networkType": "ethereum",
  "devdoc": {
    "methods": {}
  },
  "userdoc": {
    "methods": {}
  }
}