{
  "contractName": "ProjectOffice",
  "abi": [
    {
      "constant": true,
      "inputs": [],
      "name": "orderCount",
      "outputs": [
        {
          "internalType": "uint256",
          "name": "",
          "type": "uint256"
        }
      ],
      "payable": false,
      "stateMutability": "view",
      "type": "function"
    },
    {
      "constant": true,
      "inputs": [
        {
          "internalType": "uint256",
          "name": "",
          "type": "uint256"
        }
      ],
      "name": "orderIndex",
      "outputs": [
        {
          "internalType": "bytes32",
          "name": "",
          "type": "bytes32"
        }
      ],
      "payable": false,
      "stateMutability": "view",
      "type": "function"
    },
    {
      "constant": true,
      "inputs": [],
      "name": "getContractAddress",
      "outputs": [
        {
          "internalType": "address",
          "name": "",
          "type": "address"
        }
      ],
      "payable": false,
      "stateMutability": "view",
      "type": "function"
    },
    {
      "constant": false,
      "inputs": [
        {
          "internalType": "uint256",
          "name": "batteries",
          "type": "uint256"
        },
        {
          "internalType": "uint256",
          "name": "columns",
          "type": "uint256"
        },
        {
          "internalType": "uint256",
          "name": "elevators",
          "type": "uint256"
        },
        {
          "internalType": "uint256",
          "name": "floors",
          "type": "uint256"
        }
      ],
      "name": "newOrder",
      "outputs": [
        {
          "internalType": "uint256",
          "name": "",
          "type": "uint256"
        },
        {
          "internalType": "uint256",
          "name": "",
          "type": "uint256"
        },
        {
          "internalType": "uint256",
          "name": "",
          "type": "uint256"
        },
        {
          "internalType": "uint256",
          "name": "",
          "type": "uint256"
        },
        {
          "internalType": "uint256",
          "name": "",
          "type": "uint256"
        },
        {
          "internalType": "uint256",
          "name": "",
          "type": "uint256"
        }
      ],
      "payable": false,
      "stateMutability": "nonpayable",
      "type": "function"
    }
  ],
  "bytecode": "0x608060405234801561001057600080fd5b50610362806100206000396000f3fe608060405234801561001057600080fd5b506004361061004c5760003560e01c80632453ffa81461005157806332a2c5d01461006f578063864d1260146100b9578063940d9e5d146100fb575b600080fd5b61005961017e565b6040518082815260200191505060405180910390f35b610077610184565b604051808273ffffffffffffffffffffffffffffffffffffffff1673ffffffffffffffffffffffffffffffffffffffff16815260200191505060405180910390f35b6100e5600480360360208110156100cf57600080fd5b810190808035906020019092919050505061018c565b6040518082815260200191505060405180910390f35b6101456004803603608081101561011157600080fd5b81019080803590602001909291908035906020019092919080359060200190929190803590602001909291905050506101ad565b60405180878152602001868152602001858152602001848152602001838152602001828152602001965050505050505060405180910390f35b60025481565b600030905090565b6000818154811061019957fe5b906000526020600020016000915090505481565b60008060008060008060008a8a0290506000818a0290506000600260008154809291906001019190505590508160016000838152602001908152602001600020600001819055508c6001600083815260200190815260200160002060010181905550600282026001600083815260200190815260200160002060020181905550818a026001600083815260200190815260200160002060030181905550818a0160016000838152602001908152602001600020600401819055508960028302016001600083815260200190815260200160002060050181905550600160008281526020019081526020016000206000015460016000838152602001908152602001600020600101546001600084815260200190815260200160002060020154600160008581526020019081526020016000206003015460016000868152602001908152602001600020600401546001600087815260200190815260200160002060050154985098509850985098509850505050949993985094509450945056fea265627a7a72315820e077b6f76653e2a78779f243b1716351a3fcd4a03da8221cbddbd7771b48244764736f6c63430005100032",
  "source": "// SPDX-License-Identifier: MIT\npragma solidity >=0.5.0;\n\ncontract ProjectOffice {\n\n   // List of components\n    struct ComponentStruct {\n        uint256 amountOfShafts;\n        uint256 amountOfControllers;\n        uint256 amountOfDoors;\n        uint256 amountOfButtons;\n        uint256 amountOfDisplays;\n        uint256 amountOfSpeakers;\n    }\n\n    bytes32[] public orderIndex;\n    mapping(uint => ComponentStruct) componentStructs;\n    uint public orderCount;\n\n    function getContractAddress()public view returns(address){\n        return address(this);\n    }\n\n    function newOrder (uint batteries, uint columns, uint elevators, uint floors) public returns(uint,uint,uint,uint,uint,uint) {\n        uint totalColumns = columns* batteries;\n        uint totalElevators = elevators*totalColumns;\n        uint id = orderCount++;\n\n        componentStructs[id].amountOfShafts = totalElevators;\n        componentStructs[id].amountOfControllers = batteries;\n        componentStructs[id].amountOfDoors = totalElevators*2;\n        componentStructs[id].amountOfButtons = floors*totalElevators;\n        componentStructs[id].amountOfDisplays = floors+totalElevators;\n        componentStructs[id].amountOfSpeakers = (totalElevators*2)+floors;\n\n        return (componentStructs[id].amountOfShafts,componentStructs[id].amountOfControllers,componentStructs[id].amountOfDoors,componentStructs[id].amountOfButtons,componentStructs[id].amountOfDisplays,componentStructs[id].amountOfSpeakers);\n    }\n}",
  "sourcePath": "/home/cristiane/blockchain/drizzle-react-tutorial/contracts/ProjectOffice.sol",
  "compiler": {
    "name": "solc",
    "version": "0.5.16+commit.9c3226ce.Emscripten.clang"
  },
  "schemaVersion": "3.3.4",
  "updatedAt": "2021-04-16T15:25:14.997Z",
  "networkType": "ethereum",
  "devdoc": {
    "methods": {}
  },
  "userdoc": {
    "methods": {}
  }
}