{
  "contractName": "ProjectOffice",
  "abi": [
    {
      "constant": true,
      "inputs": [],
      "name": "batteriesData",
      "outputs": [
        {
          "internalType": "uint256",
          "name": "",
          "type": "uint256"
        }
      ],
      "payable": false,
      "stateMutability": "view",
      "type": "function"
    },
    {
      "constant": true,
      "inputs": [],
      "name": "columnsData",
      "outputs": [
        {
          "internalType": "uint256",
          "name": "",
          "type": "uint256"
        }
      ],
      "payable": false,
      "stateMutability": "view",
      "type": "function"
    },
    {
      "constant": true,
      "inputs": [],
      "name": "elevatorsData",
      "outputs": [
        {
          "internalType": "uint256",
          "name": "",
          "type": "uint256"
        }
      ],
      "payable": false,
      "stateMutability": "view",
      "type": "function"
    },
    {
      "constant": true,
      "inputs": [],
      "name": "floorsData",
      "outputs": [
        {
          "internalType": "uint256",
          "name": "",
          "type": "uint256"
        }
      ],
      "payable": false,
      "stateMutability": "view",
      "type": "function"
    },
    {
      "constant": true,
      "inputs": [],
      "name": "orderCount",
      "outputs": [
        {
          "internalType": "uint256",
          "name": "",
          "type": "uint256"
        }
      ],
      "payable": false,
      "stateMutability": "view",
      "type": "function"
    },
    {
      "constant": true,
      "inputs": [
        {
          "internalType": "uint256",
          "name": "",
          "type": "uint256"
        }
      ],
      "name": "orderIndex",
      "outputs": [
        {
          "internalType": "bytes32",
          "name": "",
          "type": "bytes32"
        }
      ],
      "payable": false,
      "stateMutability": "view",
      "type": "function"
    },
    {
      "constant": false,
      "inputs": [
        {
          "internalType": "uint256",
          "name": "a",
          "type": "uint256"
        },
        {
          "internalType": "uint256",
          "name": "b",
          "type": "uint256"
        },
        {
          "internalType": "uint256",
          "name": "c",
          "type": "uint256"
        },
        {
          "internalType": "uint256",
          "name": "d",
          "type": "uint256"
        }
      ],
      "name": "setData",
      "outputs": [],
      "payable": false,
      "stateMutability": "nonpayable",
      "type": "function"
    },
    {
      "constant": true,
      "inputs": [],
      "name": "getContractAddress",
      "outputs": [
        {
          "internalType": "address",
          "name": "",
          "type": "address"
        }
      ],
      "payable": false,
      "stateMutability": "view",
      "type": "function"
    },
    {
      "constant": false,
      "inputs": [
        {
          "internalType": "uint256",
          "name": "batteries",
          "type": "uint256"
        },
        {
          "internalType": "uint256",
          "name": "columns",
          "type": "uint256"
        },
        {
          "internalType": "uint256",
          "name": "elevators",
          "type": "uint256"
        },
        {
          "internalType": "uint256",
          "name": "floors",
          "type": "uint256"
        }
      ],
      "name": "newOrder",
      "outputs": [
        {
          "internalType": "uint256",
          "name": "",
          "type": "uint256"
        },
        {
          "internalType": "uint256",
          "name": "",
          "type": "uint256"
        },
        {
          "internalType": "uint256",
          "name": "",
          "type": "uint256"
        },
        {
          "internalType": "uint256",
          "name": "",
          "type": "uint256"
        },
        {
          "internalType": "uint256",
          "name": "",
          "type": "uint256"
        },
        {
          "internalType": "uint256",
          "name": "",
          "type": "uint256"
        }
      ],
      "payable": false,
      "stateMutability": "nonpayable",
      "type": "function"
    }
  ],
  "bytecode": "0x6080604052601e60005560196001556000600255600060035534801561002457600080fd5b506104c1806100346000396000f3fe608060405234801561001057600080fd5b50600436106100935760003560e01c806380e7f6181161006657806380e7f6181461013c578063864d126014610188578063940d9e5d146101ca578063b3fb9aa91461024d578063f7589d791461026b57610093565b806302ce4939146100985780632453ffa8146100b657806332a2c5d0146100d457806348ff3c4c1461011e575b600080fd5b6100a0610289565b6040518082815260200191505060405180910390f35b6100be61028f565b6040518082815260200191505060405180910390f35b6100dc610295565b604051808273ffffffffffffffffffffffffffffffffffffffff1673ffffffffffffffffffffffffffffffffffffffff16815260200191505060405180910390f35b61012661029d565b6040518082815260200191505060405180910390f35b6101866004803603608081101561015257600080fd5b81019080803590602001909291908035906020019092919080359060200190929190803590602001909291905050506102a3565b005b6101b46004803603602081101561019e57600080fd5b81019080803590602001909291905050506102df565b6040518082815260200191505060405180910390f35b610214600480360360808110156101e057600080fd5b8101908080359060200190929190803590602001909291908035906020019092919080359060200190929190505050610300565b60405180878152602001868152602001858152602001848152602001838152602001828152602001965050505050505060405180910390f35b610255610480565b6040518082815260200191505060405180910390f35b610273610486565b6040518082815260200191505060405180910390f35b60005481565b60065481565b600030905090565b60025481565b836000819055508260018190555081600181905550806003819055506102d3600054600154600154600354610300565b50505050505050505050565b600481815481106102ec57fe5b906000526020600020016000915090505481565b60008060008060008060008a8a0290506000818a0290506000600660008154809291906001019190505590508160056000838152602001908152602001600020600001819055508c6005600083815260200190815260200160002060010181905550600282026005600083815260200190815260200160002060020181905550818a026005600083815260200190815260200160002060030181905550818a01600560008381526020019081526020016000206004018190555089600283020160056000838152602001908152602001600020600501819055506005600082815260200190815260200160002060000154600560008381526020019081526020016000206001015460056000848152602001908152602001600020600201546005600085815260200190815260200160002060030154600560008681526020019081526020016000206004015460056000878152602001908152602001600020600501549850985098509850985098505050509499939850945094509450565b60035481565b6001548156fea265627a7a72315820458c3ce440aa777e0eb3e2b488949a93d170acbc8835dff2479f877920332dda64736f6c63430005100032",
  "source": "//pragma solidity >=0.7.0 <0.9.0;\npragma solidity >=0.5.0;\n\ncontract ProjectOffice {\n\n   // List of components\n    struct ComponentStruct {\n        uint256 amountOfShafts;\n        uint256 amountOfControllers;\n        uint256 amountOfDoors;\n        uint256 amountOfButtons;\n        uint256 amountOfDisplays;\n        uint256 amountOfSpeakers;\n    }\n    uint public batteriesData = 30;\n    uint public columnsData = 25;\n    uint public elevatorsData = 0;\n    \n    uint public floorsData = 0;\n\n    function setData(uint256 a, uint256 b, uint256 c, uint256 d) public {\n      batteriesData = a;\n      columnsData = b;\n      columnsData = c;\n      floorsData = d;\n\n      newOrder(batteriesData, columnsData, columnsData, floorsData);\n    }\n\n    bytes32[] public orderIndex;\n    mapping(uint => ComponentStruct) componentStructs;\n    uint public orderCount;\n\n    function getContractAddress()public view returns(address){\n        return address(this);\n    }\n\n    function newOrder (uint batteries, uint columns, uint elevators, uint floors) public returns(uint,uint,uint,uint,uint,uint) {\n        uint totalColumns = columns* batteries;\n        uint totalElevators = elevators*totalColumns;\n        uint id = orderCount++;\n\n        componentStructs[id].amountOfShafts = totalElevators;\n        componentStructs[id].amountOfControllers = batteries;\n        componentStructs[id].amountOfDoors = totalElevators*2;\n        componentStructs[id].amountOfButtons = floors*totalElevators;\n        componentStructs[id].amountOfDisplays = floors+totalElevators;\n        componentStructs[id].amountOfSpeakers = (totalElevators*2)+floors;\n\n        return (componentStructs[id].amountOfShafts,componentStructs[id].amountOfControllers,componentStructs[id].amountOfDoors,componentStructs[id].amountOfButtons,componentStructs[id].amountOfDisplays,componentStructs[id].amountOfSpeakers);\n    }\n}",
  "sourcePath": "/home/cristiane/blockchain/drizzle-react-tutorial/contracts/MyStringStore.sol",
  "compiler": {
    "name": "solc",
    "version": "0.5.16+commit.9c3226ce.Emscripten.clang"
  },
  "schemaVersion": "3.3.4",
  "updatedAt": "2021-04-16T03:07:20.632Z",
  "devdoc": {
    "methods": {}
  },
  "userdoc": {
    "methods": {}
  }
}