{
  "contractName": "ProjectOffice",
  "abi": [
    {
      "constant": true,
      "inputs": [],
      "name": "Buttons",
      "outputs": [
        {
          "internalType": "uint256",
          "name": "",
          "type": "uint256"
        }
      ],
      "payable": false,
      "stateMutability": "view",
      "type": "function"
    },
    {
      "constant": true,
      "inputs": [],
      "name": "Controllers",
      "outputs": [
        {
          "internalType": "uint256",
          "name": "",
          "type": "uint256"
        }
      ],
      "payable": false,
      "stateMutability": "view",
      "type": "function"
    },
    {
      "constant": true,
      "inputs": [],
      "name": "Displays",
      "outputs": [
        {
          "internalType": "uint256",
          "name": "",
          "type": "uint256"
        }
      ],
      "payable": false,
      "stateMutability": "view",
      "type": "function"
    },
    {
      "constant": true,
      "inputs": [],
      "name": "Doors",
      "outputs": [
        {
          "internalType": "uint256",
          "name": "",
          "type": "uint256"
        }
      ],
      "payable": false,
      "stateMutability": "view",
      "type": "function"
    },
    {
      "constant": true,
      "inputs": [],
      "name": "Shafts",
      "outputs": [
        {
          "internalType": "uint256",
          "name": "",
          "type": "uint256"
        }
      ],
      "payable": false,
      "stateMutability": "view",
      "type": "function"
    },
    {
      "constant": true,
      "inputs": [],
      "name": "Speakers",
      "outputs": [
        {
          "internalType": "uint256",
          "name": "",
          "type": "uint256"
        }
      ],
      "payable": false,
      "stateMutability": "view",
      "type": "function"
    },
    {
      "constant": true,
      "inputs": [],
      "name": "orderCount",
      "outputs": [
        {
          "internalType": "uint256",
          "name": "",
          "type": "uint256"
        }
      ],
      "payable": false,
      "stateMutability": "view",
      "type": "function"
    },
    {
      "constant": true,
      "inputs": [
        {
          "internalType": "uint256",
          "name": "",
          "type": "uint256"
        }
      ],
      "name": "orderIndex",
      "outputs": [
        {
          "internalType": "bytes32",
          "name": "",
          "type": "bytes32"
        }
      ],
      "payable": false,
      "stateMutability": "view",
      "type": "function"
    },
    {
      "constant": true,
      "inputs": [],
      "name": "getContractAddress",
      "outputs": [
        {
          "internalType": "address",
          "name": "",
          "type": "address"
        }
      ],
      "payable": false,
      "stateMutability": "view",
      "type": "function"
    },
    {
      "constant": false,
      "inputs": [
        {
          "internalType": "uint256",
          "name": "batteries",
          "type": "uint256"
        },
        {
          "internalType": "uint256",
          "name": "columns",
          "type": "uint256"
        },
        {
          "internalType": "uint256",
          "name": "elevators",
          "type": "uint256"
        },
        {
          "internalType": "uint256",
          "name": "floors",
          "type": "uint256"
        }
      ],
      "name": "newOrder",
      "outputs": [
        {
          "internalType": "uint256",
          "name": "",
          "type": "uint256"
        },
        {
          "internalType": "uint256",
          "name": "",
          "type": "uint256"
        },
        {
          "internalType": "uint256",
          "name": "",
          "type": "uint256"
        },
        {
          "internalType": "uint256",
          "name": "",
          "type": "uint256"
        },
        {
          "internalType": "uint256",
          "name": "",
          "type": "uint256"
        },
        {
          "internalType": "uint256",
          "name": "",
          "type": "uint256"
        }
      ],
      "payable": false,
      "stateMutability": "nonpayable",
      "type": "function"
    }
  ],
  "bytecode": "0x6080604052600080556000600155600060025560006003556000600455600060055534801561002d57600080fd5b5061053a8061003d6000396000f3fe608060405234801561001057600080fd5b506004361061009e5760003560e01c806381cd31b21161006657806381cd31b214610165578063864d126014610183578063940d9e5d146101c5578063b1e729a614610248578063fd78e09f146102665761009e565b80632453ffa8146100a357806332a2c5d0146100c157806356841c791461010b578063606dbe4f1461012957806361785ae914610147575b600080fd5b6100ab610284565b6040518082815260200191505060405180910390f35b6100c961028a565b604051808273ffffffffffffffffffffffffffffffffffffffff1673ffffffffffffffffffffffffffffffffffffffff16815260200191505060405180910390f35b610113610292565b6040518082815260200191505060405180910390f35b610131610298565b6040518082815260200191505060405180910390f35b61014f61029e565b6040518082815260200191505060405180910390f35b61016d6102a4565b6040518082815260200191505060405180910390f35b6101af6004803603602081101561019957600080fd5b81019080803590602001909291905050506102aa565b6040518082815260200191505060405180910390f35b61020f600480360360808110156101db57600080fd5b81019080803590602001909291908035906020019092919080359060200190929190803590602001909291905050506102cb565b60405180878152602001868152602001858152602001848152602001838152602001828152602001965050505050505060405180910390f35b6102506104f9565b6040518082815260200191505060405180910390f35b61026e6104ff565b6040518082815260200191505060405180910390f35b60085481565b600030905090565b60055481565b60035481565b60015481565b60025481565b600681815481106102b757fe5b906000526020600020016000915090505481565b60008060008060008060008a8a0290506000818a0290506000600860008154809291906001019190505590508160076000838152602001908152602001600020600001819055508c6007600083815260200190815260200160002060010181905550600282026007600083815260200190815260200160002060020181905550818a026007600083815260200190815260200160002060030181905550818a01600760008381526020019081526020016000206004018190555089600283020160076000838152602001908152602001600020600501819055506007600082815260200190815260200160002060000154600181905550600760008281526020019081526020016000206001015460008190555060076000828152602001908152602001600020600201546002819055506007600082815260200190815260200160002060030154600381905550600760008281526020019081526020016000206004015460048190555060076000828152602001908152602001600020600501546005819055506007600082815260200190815260200160002060000154600760008381526020019081526020016000206001015460076000848152602001908152602001600020600201546007600085815260200190815260200160002060030154600760008681526020019081526020016000206004015460076000878152602001908152602001600020600501549850985098509850985098505050509499939850945094509450565b60045481565b6000548156fea265627a7a72315820a24007b210ea88dee17756d04dd18eb19ae23660c85f86b1efb385e7c80cb0ef64736f6c63430005100032",
  "source": "// SPDX-License-Identifier: MIT\npragma solidity >=0.5.0;\n\ncontract ProjectOffice {\n\n    uint256 public Controllers = 0;\n    uint256 public Shafts = 0;\n    uint256 public Doors = 0;\n    uint256 public Buttons = 0;\n    uint256 public Displays = 0;\n    uint256 public Speakers = 0;\n\n   // List of components\n    struct ComponentStruct {\n        uint256 amountOfShafts;\n        uint256 amountOfControllers;\n        uint256 amountOfDoors;\n        uint256 amountOfButtons;\n        uint256 amountOfDisplays;\n        uint256 amountOfSpeakers;\n    }\n\n    bytes32[] public orderIndex;\n    mapping(uint => ComponentStruct) componentStructs;\n    uint public orderCount;\n\n    function getContractAddress()public view returns(address){\n        return address(this);\n    }\n\n    function newOrder (uint batteries, uint columns, uint elevators, uint floors) public returns(uint,uint,uint,uint,uint,uint) {\n        uint totalColumns = columns* batteries;\n        uint totalElevators = elevators*totalColumns;\n        uint id = orderCount++;\n\n        componentStructs[id].amountOfShafts = totalElevators;        \n        componentStructs[id].amountOfControllers = batteries;\n        componentStructs[id].amountOfDoors = totalElevators*2;\n        componentStructs[id].amountOfButtons = floors*totalElevators;\n        componentStructs[id].amountOfDisplays = floors+totalElevators;\n        componentStructs[id].amountOfSpeakers = (totalElevators*2)+floors;\n\n        Shafts = componentStructs[id].amountOfShafts;\n        Controllers = componentStructs[id].amountOfControllers;\n        Doors = componentStructs[id].amountOfDoors;\n        Buttons = componentStructs[id].amountOfButtons;\n        Displays = componentStructs[id].amountOfDisplays;\n        Speakers = componentStructs[id].amountOfSpeakers;\n\n        return (componentStructs[id].amountOfShafts,componentStructs[id].amountOfControllers,componentStructs[id].amountOfDoors,componentStructs[id].amountOfButtons,componentStructs[id].amountOfDisplays,componentStructs[id].amountOfSpeakers);\n    }\n}",
  "sourcePath": "/home/cristiane/blockchain/drizzle-react-tutorial/contracts/ProjectOffice.sol",
  "compiler": {
    "name": "solc",
    "version": "0.5.16+commit.9c3226ce.Emscripten.clang"
  },
  "schemaVersion": "3.3.4",
  "updatedAt": "2021-04-16T20:49:28.771Z",
  "networkType": "ethereum",
  "devdoc": {
    "methods": {}
  },
  "userdoc": {
    "methods": {}
  }
}