{
  "contractName": "ProjectOffice",
  "abi": [
    {
      "constant": true,
      "inputs": [],
      "name": "amountOfButtons",
      "outputs": [
        {
          "internalType": "uint256",
          "name": "",
          "type": "uint256"
        }
      ],
      "payable": false,
      "stateMutability": "view",
      "type": "function"
    },
    {
      "constant": true,
      "inputs": [],
      "name": "amountOfControllers",
      "outputs": [
        {
          "internalType": "uint256",
          "name": "",
          "type": "uint256"
        }
      ],
      "payable": false,
      "stateMutability": "view",
      "type": "function"
    },
    {
      "constant": true,
      "inputs": [],
      "name": "amountOfDisplays",
      "outputs": [
        {
          "internalType": "uint256",
          "name": "",
          "type": "uint256"
        }
      ],
      "payable": false,
      "stateMutability": "view",
      "type": "function"
    },
    {
      "constant": true,
      "inputs": [],
      "name": "amountOfDoors",
      "outputs": [
        {
          "internalType": "uint256",
          "name": "",
          "type": "uint256"
        }
      ],
      "payable": false,
      "stateMutability": "view",
      "type": "function"
    },
    {
      "constant": true,
      "inputs": [],
      "name": "amountOfShafts",
      "outputs": [
        {
          "internalType": "uint256",
          "name": "",
          "type": "uint256"
        }
      ],
      "payable": false,
      "stateMutability": "view",
      "type": "function"
    },
    {
      "constant": true,
      "inputs": [],
      "name": "amountOfSpeakers",
      "outputs": [
        {
          "internalType": "uint256",
          "name": "",
          "type": "uint256"
        }
      ],
      "payable": false,
      "stateMutability": "view",
      "type": "function"
    },
    {
      "constant": true,
      "inputs": [],
      "name": "orderCount",
      "outputs": [
        {
          "internalType": "uint256",
          "name": "",
          "type": "uint256"
        }
      ],
      "payable": false,
      "stateMutability": "view",
      "type": "function"
    },
    {
      "constant": true,
      "inputs": [
        {
          "internalType": "uint256",
          "name": "",
          "type": "uint256"
        }
      ],
      "name": "orderIndex",
      "outputs": [
        {
          "internalType": "bytes32",
          "name": "",
          "type": "bytes32"
        }
      ],
      "payable": false,
      "stateMutability": "view",
      "type": "function"
    },
    {
      "constant": true,
      "inputs": [],
      "name": "getContractAddress",
      "outputs": [
        {
          "internalType": "address",
          "name": "",
          "type": "address"
        }
      ],
      "payable": false,
      "stateMutability": "view",
      "type": "function"
    },
    {
      "constant": false,
      "inputs": [
        {
          "internalType": "uint256",
          "name": "batteries",
          "type": "uint256"
        },
        {
          "internalType": "uint256",
          "name": "columns",
          "type": "uint256"
        },
        {
          "internalType": "uint256",
          "name": "elevators",
          "type": "uint256"
        },
        {
          "internalType": "uint256",
          "name": "floors",
          "type": "uint256"
        }
      ],
      "name": "newOrder",
      "outputs": [],
      "payable": false,
      "stateMutability": "nonpayable",
      "type": "function"
    }
  ],
  "bytecode": "0x608060405260006003556000600455600060055560006006556000600755600060085534801561002e57600080fd5b506103218061003e6000396000f3fe608060405234801561001057600080fd5b506004361061009e5760003560e01c806363c1020f1161006657806363c1020f1461016557806379dbe4ab14610183578063864d1260146101a1578063940d9e5d146101e3578063ee15b17c1461022f5761009e565b806304c8297c146100a35780632453ffa8146100c15780632a488bc5146100df57806332a2c5d0146100fd5780633a1907be14610147575b600080fd5b6100ab61024d565b6040518082815260200191505060405180910390f35b6100c9610253565b6040518082815260200191505060405180910390f35b6100e7610259565b6040518082815260200191505060405180910390f35b61010561025f565b604051808273ffffffffffffffffffffffffffffffffffffffff1673ffffffffffffffffffffffffffffffffffffffff16815260200191505060405180910390f35b61014f610267565b6040518082815260200191505060405180910390f35b61016d61026d565b6040518082815260200191505060405180910390f35b61018b610273565b6040518082815260200191505060405180910390f35b6101cd600480360360208110156101b757600080fd5b8101908080359060200190929190505050610279565b6040518082815260200191505060405180910390f35b61022d600480360360808110156101f957600080fd5b810190808035906020019092919080359060200190929190803590602001909291908035906020019092919050505061029a565b005b6102376102e6565b6040518082815260200191505060405180910390f35b60055481565b60025481565b60085481565b600030905090565b60065481565b60035481565b60075481565b6000818154811061028657fe5b906000526020600020016000915090505481565b6000848402905060008184029050806003819055508560048190555060028102600581905550808302600681905550808301600781905550826002820201600881905550505050505050565b6004548156fea265627a7a723158208a2d833fc3aee76d2461d327051b8964bea0342d669c147197c8735d19ab124464736f6c63430005100032",
  "source": "// SPDX-License-Identifier: MIT\npragma solidity >=0.5.0;\n\ncontract ProjectOffice {\n\n   // List of components\n    struct ComponentStruct {\n        uint256 amountOfShafts;\n        uint256 amountOfControllers;\n        uint256 amountOfDoors;\n        uint256 amountOfButtons;\n        uint256 amountOfDisplays;\n        uint256 amountOfSpeakers;\n    }\n\n    bytes32[] public orderIndex;\n    mapping(uint => ComponentStruct) componentStructs;\n    uint public orderCount;\n\n    uint public amountOfShafts = 0;\n    uint public amountOfControllers = 0;\n    uint public amountOfDoors = 0;\n    uint public amountOfButtons = 0;\n    uint public amountOfDisplays = 0;\n    uint public amountOfSpeakers = 0;\n\n    function getContractAddress()public view returns(address){\n        return address(this);\n    }\n\n    function newOrder (uint batteries, uint columns, uint elevators, uint floors) public {\n        uint totalColumns = columns* batteries;\n        uint totalElevators = elevators*totalColumns;\n        // uint id = orderCount++;\n\n        // componentStructs[id].amountOfShafts = totalElevators;\n        amountOfShafts = totalElevators;\n        // componentStructs[id].amountOfControllers = batteries;\n        amountOfControllers = batteries;\n        // componentStructs[id].amountOfDoors = totalElevators*2;\n        amountOfDoors = totalElevators*2;\n        // componentStructs[id].amountOfButtons = floors*totalElevators;\n        amountOfButtons = floors*totalElevators;\n        // componentStructs[id].amountOfDisplays = floors+totalElevators;\n        amountOfDisplays = floors+totalElevators;\n        // componentStructs[id].amountOfSpeakers = (totalElevators*2)+floors;\n        amountOfSpeakers = (totalElevators*2)+floors;\n        // return (componentStructs[id].amountOfShafts,componentStructs[id].amountOfControllers,componentStructs[id].amountOfDoors,componentStructs[id].amountOfButtons,componentStructs[id].amountOfDisplays,componentStructs[id].amountOfSpeakers);\n    }\n}",
  "sourcePath": "/home/tommy/Documents/codeboxx/AWeek12/blockchain-app/Rocket_Elevators_Blockchain/contracts/ProjectOffice.sol",
  "compiler": {
    "name": "solc",
    "version": "0.5.16+commit.9c3226ce.Emscripten.clang"
  },
  "schemaVersion": "3.3.4",
  "updatedAt": "2021-04-16T18:19:55.615Z",
  "networkType": "ethereum",
  "devdoc": {
    "methods": {}
  },
  "userdoc": {
    "methods": {}
  }
}