{
  "contractName": "QualitySecurity",
  "abi": [
    {
      "constant": true,
      "inputs": [],
      "name": "GetQuality",
      "outputs": [
        {
          "components": [
            {
              "internalType": "uint256",
              "name": "qualityTestId",
              "type": "uint256"
            },
            {
              "internalType": "string",
              "name": "object",
              "type": "string"
            },
            {
              "internalType": "uint256",
              "name": "objectCount",
              "type": "uint256"
            },
            {
              "internalType": "string",
              "name": "employee",
              "type": "string"
            },
            {
              "internalType": "uint256",
              "name": "testDate",
              "type": "uint256"
            }
          ],
          "internalType": "struct QualitySecurity.QualityTest[]",
          "name": "",
          "type": "tuple[]"
        }
      ],
      "payable": false,
      "stateMutability": "view",
      "type": "function"
    },
    {
      "constant": true,
      "inputs": [],
      "name": "GetCertificate",
      "outputs": [
        {
          "components": [
            {
              "internalType": "uint256",
              "name": "certificateId",
              "type": "uint256"
            },
            {
              "internalType": "string",
              "name": "certificateType",
              "type": "string"
            },
            {
              "internalType": "string",
              "name": "employeeCertificate",
              "type": "string"
            },
            {
              "internalType": "uint256",
              "name": "certificateDate",
              "type": "uint256"
            }
          ],
          "internalType": "struct QualitySecurity.Certificate[]",
          "name": "",
          "type": "tuple[]"
        }
      ],
      "payable": false,
      "stateMutability": "view",
      "type": "function"
    },
    {
      "constant": true,
      "inputs": [],
      "name": "GetPermit",
      "outputs": [
        {
          "components": [
            {
              "internalType": "uint256",
              "name": "permitId",
              "type": "uint256"
            },
            {
              "internalType": "string",
              "name": "permitType",
              "type": "string"
            },
            {
              "internalType": "string",
              "name": "employeePermit",
              "type": "string"
            },
            {
              "internalType": "uint256",
              "name": "permitDate",
              "type": "uint256"
            }
          ],
          "internalType": "struct QualitySecurity.Permit[]",
          "name": "",
          "type": "tuple[]"
        }
      ],
      "payable": false,
      "stateMutability": "view",
      "type": "function"
    },
    {
      "constant": true,
      "inputs": [
        {
          "internalType": "uint256",
          "name": "index",
          "type": "uint256"
        }
      ],
      "name": "GetQualityIndex",
      "outputs": [
        {
          "components": [
            {
              "internalType": "uint256",
              "name": "qualityTestId",
              "type": "uint256"
            },
            {
              "internalType": "string",
              "name": "object",
              "type": "string"
            },
            {
              "internalType": "uint256",
              "name": "objectCount",
              "type": "uint256"
            },
            {
              "internalType": "string",
              "name": "employee",
              "type": "string"
            },
            {
              "internalType": "uint256",
              "name": "testDate",
              "type": "uint256"
            }
          ],
          "internalType": "struct QualitySecurity.QualityTest",
          "name": "",
          "type": "tuple"
        }
      ],
      "payable": false,
      "stateMutability": "view",
      "type": "function"
    },
    {
      "constant": true,
      "inputs": [
        {
          "internalType": "uint256",
          "name": "index",
          "type": "uint256"
        }
      ],
      "name": "GetCertificateIndex",
      "outputs": [
        {
          "components": [
            {
              "internalType": "uint256",
              "name": "certificateId",
              "type": "uint256"
            },
            {
              "internalType": "string",
              "name": "certificateType",
              "type": "string"
            },
            {
              "internalType": "string",
              "name": "employeeCertificate",
              "type": "string"
            },
            {
              "internalType": "uint256",
              "name": "certificateDate",
              "type": "uint256"
            }
          ],
          "internalType": "struct QualitySecurity.Certificate",
          "name": "",
          "type": "tuple"
        }
      ],
      "payable": false,
      "stateMutability": "view",
      "type": "function"
    },
    {
      "constant": true,
      "inputs": [
        {
          "internalType": "uint256",
          "name": "index",
          "type": "uint256"
        }
      ],
      "name": "GetPermitIndex",
      "outputs": [
        {
          "components": [
            {
              "internalType": "uint256",
              "name": "permitId",
              "type": "uint256"
            },
            {
              "internalType": "string",
              "name": "permitType",
              "type": "string"
            },
            {
              "internalType": "string",
              "name": "employeePermit",
              "type": "string"
            },
            {
              "internalType": "uint256",
              "name": "permitDate",
              "type": "uint256"
            }
          ],
          "internalType": "struct QualitySecurity.Permit",
          "name": "",
          "type": "tuple"
        }
      ],
      "payable": false,
      "stateMutability": "view",
      "type": "function"
    },
    {
      "constant": false,
      "inputs": [
        {
          "internalType": "uint256",
          "name": "door",
          "type": "uint256"
        },
        {
          "internalType": "uint256",
          "name": "cable",
          "type": "uint256"
        },
        {
          "internalType": "uint256",
          "name": "brake",
          "type": "uint256"
        },
        {
          "internalType": "uint256",
          "name": "battery",
          "type": "uint256"
        },
        {
          "internalType": "uint256",
          "name": "column",
          "type": "uint256"
        }
      ],
      "name": "createQuality",
      "outputs": [],
      "payable": false,
      "stateMutability": "nonpayable",
      "type": "function"
    }
  ],
  "bytecode": "0x6080604052336000806101000a81548173ffffffffffffffffffffffffffffffffffffffff021916908373ffffffffffffffffffffffffffffffffffffffff160217905550600180556040518060c001604052806040518060400160405280600581526020017f46656c697800000000000000000000000000000000000000000000000000000081525081526020016040518060400160405280600681526020017f436c61756465000000000000000000000000000000000000000000000000000081525081526020016040518060400160405280600581526020017f546f6d6d7900000000000000000000000000000000000000000000000000000081525081526020016040518060400160405280600481526020017f496e65730000000000000000000000000000000000000000000000000000000081525081526020016040518060400160405280600481526020017f457269630000000000000000000000000000000000000000000000000000000081525081526020016040518060400160405280600a81526020017f43687269737469616e65000000000000000000000000000000000000000000008152508152506005906006620001c5929190620001df565b506000600655348015620001d857600080fd5b5062000372565b82805482825590600052602060002090810192821562000233579160200282015b82811115620002325782518290805190602001906200022192919062000246565b509160200191906001019062000200565b5b509050620002429190620002cd565b5090565b828054600181600116156101000203166002900490600052602060002090601f016020900481019282601f106200028957805160ff1916838001178555620002ba565b82800160010185558215620002ba579182015b82811115620002b95782518255916020019190600101906200029c565b5b509050620002c99190620002fe565b5090565b620002fb91905b80821115620002f75760008181620002ed919062000326565b50600101620002d4565b5090565b90565b6200032391905b808211156200031f57600081600090555060010162000305565b5090565b90565b50805460018160011615610100020316600290046000825580601f106200034e57506200036f565b601f0160209004906000526020600020908101906200036e9190620002fe565b5b50565b61193280620003826000396000f3fe608060405234801561001057600080fd5b506004361061007d5760003560e01c806395a7e9801161005b57806395a7e980146100ee578063a64386601461011e578063d737f41b1461013a578063dfe575141461016a5761007d565b8063037387b214610082578063405d7eb4146100b2578063568913a2146100d0575b600080fd5b61009c600480360361009791908101906111a8565b610188565b6040516100a99190611742565b60405180910390f35b6100ba610315565b6040516100c791906116fe565b60405180910390f35b6100d86104cc565b6040516100e59190611720565b60405180910390f35b610108600480360361010391908101906111a8565b61068d565b6040516101159190611786565b60405180910390f35b610138600480360361013391908101906111d1565b610824565b005b610154600480360361014f91908101906111a8565b6108fa565b6040516101619190611764565b60405180910390f35b610172610a87565b60405161017f91906116dc565b60405180910390f35b61019061106f565b6003828154811061019d57fe5b906000526020600020906004020160405180608001604052908160008201548152602001600182018054600181600116156101000203166002900480601f0160208091040260200160405190810160405280929190818152602001828054600181600116156101000203166002900480156102595780601f1061022e57610100808354040283529160200191610259565b820191906000526020600020905b81548152906001019060200180831161023c57829003601f168201915b50505050508152602001600282018054600181600116156101000203166002900480601f0160208091040260200160405190810160405280929190818152602001828054600181600116156101000203166002900480156102fb5780601f106102d0576101008083540402835291602001916102fb565b820191906000526020600020905b8154815290600101906020018083116102de57829003601f168201915b505050505081526020016003820154815250509050919050565b60606004805480602002602001604051908101604052809291908181526020016000905b828210156104c3578382906000526020600020906004020160405180608001604052908160008201548152602001600182018054600181600116156101000203166002900480601f0160208091040260200160405190810160405280929190818152602001828054600181600116156101000203166002900480156103ff5780601f106103d4576101008083540402835291602001916103ff565b820191906000526020600020905b8154815290600101906020018083116103e257829003601f168201915b50505050508152602001600282018054600181600116156101000203166002900480601f0160208091040260200160405190810160405280929190818152602001828054600181600116156101000203166002900480156104a15780601f10610476576101008083540402835291602001916104a1565b820191906000526020600020905b81548152906001019060200180831161048457829003601f168201915b5050505050815260200160038201548152505081526020019060010190610339565b50505050905090565b60606002805480602002602001604051908101604052809291908181526020016000905b8282101561068457838290600052602060002090600502016040518060a001604052908160008201548152602001600182018054600181600116156101000203166002900480601f0160208091040260200160405190810160405280929190818152602001828054600181600116156101000203166002900480156105b65780601f1061058b576101008083540402835291602001916105b6565b820191906000526020600020905b81548152906001019060200180831161059957829003601f168201915b5050505050815260200160028201548152602001600382018054600181600116156101000203166002900480601f0160208091040260200160405190810160405280929190818152602001828054600181600116156101000203166002900480156106625780601f1061063757610100808354040283529160200191610662565b820191906000526020600020905b81548152906001019060200180831161064557829003601f168201915b50505050508152602001600482015481525050815260200190600101906104f0565b50505050905090565b610695611097565b600282815481106106a257fe5b90600052602060002090600502016040518060a001604052908160008201548152602001600182018054600181600116156101000203166002900480601f01602080910402602001604051908101604052809291908181526020018280546001816001161561010002031660029004801561075e5780601f106107335761010080835404028352916020019161075e565b820191906000526020600020905b81548152906001019060200180831161074157829003601f168201915b5050505050815260200160028201548152602001600382018054600181600116156101000203166002900480601f01602080910402602001604051908101604052809291908181526020018280546001816001161561010002031660029004801561080a5780601f106107df5761010080835404028352916020019161080a565b820191906000526020600020905b8154815290600101906020018083116107ed57829003601f168201915b505050505081526020016004820154815250509050919050565b6108636040518060400160405280600481526020017f446f6f720000000000000000000000000000000000000000000000000000000081525086610c3e565b6108a26040518060400160405280600581526020017f4272616b6500000000000000000000000000000000000000000000000000000081525084610c3e565b6108e16040518060400160405280600581526020017f4361626c6500000000000000000000000000000000000000000000000000000081525085610c3e565b6108ea81610d1f565b6108f382610e31565b5050505050565b6109026110c6565b6004828154811061090f57fe5b906000526020600020906004020160405180608001604052908160008201548152602001600182018054600181600116156101000203166002900480601f0160208091040260200160405190810160405280929190818152602001828054600181600116156101000203166002900480156109cb5780601f106109a0576101008083540402835291602001916109cb565b820191906000526020600020905b8154815290600101906020018083116109ae57829003601f168201915b50505050508152602001600282018054600181600116156101000203166002900480601f016020809104026020016040519081016040528092919081815260200182805460018160011615610100020316600290048015610a6d5780601f10610a4257610100808354040283529160200191610a6d565b820191906000526020600020905b815481529060010190602001808311610a5057829003601f168201915b505050505081526020016003820154815250509050919050565b60606003805480602002602001604051908101604052809291908181526020016000905b82821015610c35578382906000526020600020906004020160405180608001604052908160008201548152602001600182018054600181600116156101000203166002900480601f016020809104026020016040519081016040528092919081815260200182805460018160011615610100020316600290048015610b715780601f10610b4657610100808354040283529160200191610b71565b820191906000526020600020905b815481529060010190602001808311610b5457829003601f168201915b50505050508152602001600282018054600181600116156101000203166002900480601f016020809104026020016040519081016040528092919081815260200182805460018160011615610100020316600290048015610c135780601f10610be857610100808354040283529160200191610c13565b820191906000526020600020905b815481529060010190602001808311610bf657829003601f168201915b5050505050815260200160038201548152505081526020019060010190610aab565b50505050905090565b610c46611097565b60015481600001818152505082816020018190525081816040018181525050610c6d610f43565b81606001819052504281608001818152505060016000815480929190600101919050555060028190806001815401808255809150509060018203906000526020600020906005020160009091929091909150600082015181600001556020820151816001019080519060200190610ce59291906110ee565b50604082015181600201556060820151816003019080519060200190610d0c9291906110ee565b5060808201518160040155505050505050565b60008090505b81811015610e2d57610d3561106f565b610d3d611027565b8160000181815250506040518060400160405280600681526020017f436f6c756d6e00000000000000000000000000000000000000000000000000008152508160200181905250610d8c610f43565b816040018190525081420181606001818152505060038190806001815401808255809150509060018203906000526020600020906004020160009091929091909150600082015181600001556020820151816001019080519060200190610df49291906110ee565b506040820151816002019080519060200190610e119291906110ee565b5060608201518160030155505050508080600101915050610d25565b5050565b60008090505b81811015610f3f57610e476110c6565b610e4f611027565b8160000181815250506040518060400160405280600781526020017f42617474657279000000000000000000000000000000000000000000000000008152508160200181905250610e9e610f43565b816040018190525081420181606001818152505060048190806001815401808255809150509060018203906000526020600020906004020160009091929091909150600082015181600001556020820151816001019080519060200190610f069291906110ee565b506040820151816002019080519060200190610f239291906110ee565b5060608201518160030155505050508080600101915050610e37565b5050565b606080600560065481548110610f5557fe5b906000526020600020018054600181600116156101000203166002900480601f016020809104026020016040519081016040528092919081815260200182805460018160011615610100020316600290048015610ff35780601f10610fc857610100808354040283529160200191610ff3565b820191906000526020600020905b815481529060010190602001808311610fd657829003601f168201915b50505050509050600660008154809291906001019190505550600560065411156110205760006006819055505b8091505090565b6000804260405160200161103b91906117a8565b6040516020818303038152906040528051906020012060001c905068056bc75e2d63100000818161106857fe5b0691505090565b6040518060800160405280600081526020016060815260200160608152602001600081525090565b6040518060a0016040528060008152602001606081526020016000815260200160608152602001600081525090565b6040518060800160405280600081526020016060815260200160608152602001600081525090565b828054600181600116156101000203166002900490600052602060002090601f016020900481019282601f1061112f57805160ff191683800117855561115d565b8280016001018555821561115d579182015b8281111561115c578251825591602001919060010190611141565b5b50905061116a919061116e565b5090565b61119091905b8082111561118c576000816000905550600101611174565b5090565b90565b6000813590506111a2816118d8565b92915050565b6000602082840312156111ba57600080fd5b60006111c884828501611193565b91505092915050565b600080600080600060a086880312156111e957600080fd5b60006111f788828901611193565b955050602061120888828901611193565b945050604061121988828901611193565b935050606061122a88828901611193565b925050608061123b88828901611193565b9150509295509295909350565b60006112548383611486565b905092915050565b6000611268838361155a565b905092915050565b600061127c8383611641565b905092915050565b600061128f826117f3565b6112998185611846565b9350836020820285016112ab856117c3565b8060005b858110156112e757848403895281516112c88582611248565b94506112d38361181f565b925060208a019950506001810190506112af565b50829750879550505050505092915050565b6000611304826117fe565b61130e8185611857565b935083602082028501611320856117d3565b8060005b8581101561135c578484038952815161133d858261125c565b94506113488361182c565b925060208a01995050600181019050611324565b50829750879550505050505092915050565b600061137982611809565b6113838185611868565b935083602082028501611395856117e3565b8060005b858110156113d157848403895281516113b28582611270565b94506113bd83611839565b925060208a01995050600181019050611399565b50829750879550505050505092915050565b60006113ee82611814565b6113f88185611879565b9350611408818560208601611894565b611411816118c7565b840191505092915050565b600060808301600083015161143460008601826116be565b506020830151848203602086015261144c82826113e3565b9150506040830151848203604086015261146682826113e3565b915050606083015161147b60608601826116be565b508091505092915050565b600060808301600083015161149e60008601826116be565b50602083015184820360208601526114b682826113e3565b915050604083015184820360408601526114d082826113e3565b91505060608301516114e560608601826116be565b508091505092915050565b600060808301600083015161150860008601826116be565b506020830151848203602086015261152082826113e3565b9150506040830151848203604086015261153a82826113e3565b915050606083015161154f60608601826116be565b508091505092915050565b600060808301600083015161157260008601826116be565b506020830151848203602086015261158a82826113e3565b915050604083015184820360408601526115a482826113e3565b91505060608301516115b960608601826116be565b508091505092915050565b600060a0830160008301516115dc60008601826116be565b50602083015184820360208601526115f482826113e3565b915050604083015161160960408601826116be565b506060830151848203606086015261162182826113e3565b915050608083015161163660808601826116be565b508091505092915050565b600060a08301600083015161165960008601826116be565b506020830151848203602086015261167182826113e3565b915050604083015161168660408601826116be565b506060830151848203606086015261169e82826113e3565b91505060808301516116b360808601826116be565b508091505092915050565b6116c78161188a565b82525050565b6116d68161188a565b82525050565b600060208201905081810360008301526116f68184611284565b905092915050565b6000602082019050818103600083015261171881846112f9565b905092915050565b6000602082019050818103600083015261173a818461136e565b905092915050565b6000602082019050818103600083015261175c818461141c565b905092915050565b6000602082019050818103600083015261177e81846114f0565b905092915050565b600060208201905081810360008301526117a081846115c4565b905092915050565b60006020820190506117bd60008301846116cd565b92915050565b6000819050602082019050919050565b6000819050602082019050919050565b6000819050602082019050919050565b600081519050919050565b600081519050919050565b600081519050919050565b600081519050919050565b6000602082019050919050565b6000602082019050919050565b6000602082019050919050565b600082825260208201905092915050565b600082825260208201905092915050565b600082825260208201905092915050565b600082825260208201905092915050565b6000819050919050565b60005b838110156118b2578082015181840152602081019050611897565b838111156118c1576000848401525b50505050565b6000601f19601f8301169050919050565b6118e18161188a565b81146118ec57600080fd5b5056fea365627a7a7231582030f63ad2dbacab09511a9c7f2d914fcfb818ec2b5c5cbe29dbcf26179a30e5076c6578706572696d656e74616cf564736f6c63430005100040",
  "source": "// SPDX-License-Identifier: GPL-3.0\npragma solidity >=0.5.0;\npragma experimental ABIEncoderV2;\n\ncontract QualitySecurity {\n    \n    address qualityId = msg.sender;\n    \n    struct QualityTest{\n        uint qualityTestId;\n        string object;\n        uint objectCount;\n        string employee;\n        uint testDate;\n        \n    }\n    \n    struct Certificate{\n        uint certificateId;\n        string certificateType;\n        string employeeCertificate;\n        uint certificateDate;\n\n    }\n    \n    struct Permit{\n        uint permitId;\n        string permitType;\n        string employeePermit;\n        uint permitDate;\n    }\n\n    uint qualityTestId = 1;\n    \n    QualityTest[] qualityList;\n    \n    Certificate[] certificateList;\n    \n    Permit[] permitList;\n    \n    string[] employeeList = [\"Felix\",\"Claude\",\"Tommy\",\"Ines\",\"Eric\",\"Christiane\"];\n    uint employeeNumber = 0;\n\n\n    function selectEmployee() private returns(string memory){\n        string memory employee = employeeList[employeeNumber];\n        employeeNumber++;\n        if (employeeNumber > 5) {\n            employeeNumber = 0;\n        }\n        return employee;\n    }\n    \n    function makeTest(string memory item,uint number) private{\n        QualityTest memory new_quality;\n        new_quality.qualityTestId = qualityTestId;\n        new_quality.object = item;\n        new_quality.objectCount = number;\n        new_quality.employee = selectEmployee();\n        new_quality.testDate = block.timestamp;\n        qualityTestId++;\n        qualityList.push(new_quality);\n    }\n    \n    function genRandom() private view returns (uint) {\n        uint rand = uint(keccak256(abi.encode(block.timestamp)));\n        return uint(rand % (10 ** 20));\n    }\n    \n    \n    function makeCertificate(uint number) private{\n        for(uint i=0; i<number; i++){\n            Certificate memory new_certificate;\n            new_certificate.certificateId = genRandom();\n            new_certificate.certificateType = \"Column\";\n            new_certificate.employeeCertificate = selectEmployee();\n            new_certificate.certificateDate = block.timestamp + i;\n            certificateList.push(new_certificate);\n        }\n    }\n    \n    function makePermit(uint number) private{\n        for(uint i=0; i<number; i++){\n            Permit memory new_permit;\n            new_permit.permitId = genRandom();\n            new_permit.permitType = \"Battery\";\n            new_permit.employeePermit = selectEmployee();\n            new_permit.permitDate = block.timestamp + i;\n            permitList.push(new_permit);\n        }\n        \n    }\n    \n    function GetQuality() public view returns(QualityTest[] memory){\n        return qualityList;\n    }\n    \n    function GetCertificate() public view returns(Certificate[] memory){\n        return certificateList;\n    }\n    \n    function GetPermit() public view returns(Permit[] memory){\n        return permitList;\n    }\n    \n    function GetQualityIndex(uint index) public view returns(QualityTest memory){\n        return qualityList[index];\n    }\n    \n    function GetCertificateIndex(uint index) public view returns(Certificate memory){\n        return certificateList[index];\n    }\n    \n    function GetPermitIndex(uint index) public view returns(Permit memory){\n        return permitList[index];\n    }\n    \n    \n     function createQuality(uint door, uint cable, uint brake, uint battery, uint column) public{\n        makeTest(\"Door\",door);\n        makeTest(\"Brake\",brake);\n        makeTest(\"Cable\",cable);\n        makeCertificate(column);\n        makePermit(battery);\n         \n         \n     }\n    \n\n}",
  "sourcePath": "/home/cristiane/blockchain/drizzle-react-tutorial/contracts/QualitySecurity.sol",
  "compiler": {
    "name": "solc",
    "version": "0.5.16+commit.9c3226ce.Emscripten.clang"
  },
  "schemaVersion": "3.3.4",
  "updatedAt": "2021-04-16T15:25:15.055Z",
  "networkType": "ethereum",
  "devdoc": {
    "methods": {}
  },
  "userdoc": {
    "methods": {}
  }
}