{
  "contractName": "QualitySecurity",
  "abi": [
    {
      "constant": true,
      "inputs": [
        {
          "internalType": "uint256",
          "name": "",
          "type": "uint256"
        }
      ],
      "name": "certificateList",
      "outputs": [
        {
          "internalType": "uint256",
          "name": "certificateId",
          "type": "uint256"
        },
        {
          "internalType": "string",
          "name": "certificateType",
          "type": "string"
        },
        {
          "internalType": "string",
          "name": "employeeCertificate",
          "type": "string"
        },
        {
          "internalType": "uint256",
          "name": "certificateDate",
          "type": "uint256"
        }
      ],
      "payable": false,
      "stateMutability": "view",
      "type": "function"
    },
    {
      "constant": true,
      "inputs": [
        {
          "internalType": "uint256",
          "name": "",
          "type": "uint256"
        }
      ],
      "name": "permitList",
      "outputs": [
        {
          "internalType": "uint256",
          "name": "permitId",
          "type": "uint256"
        },
        {
          "internalType": "string",
          "name": "permitType",
          "type": "string"
        },
        {
          "internalType": "string",
          "name": "employeePermit",
          "type": "string"
        },
        {
          "internalType": "uint256",
          "name": "permitDate",
          "type": "uint256"
        }
      ],
      "payable": false,
      "stateMutability": "view",
      "type": "function"
    },
    {
      "constant": true,
      "inputs": [
        {
          "internalType": "uint256",
          "name": "",
          "type": "uint256"
        }
      ],
      "name": "qualityList",
      "outputs": [
        {
          "internalType": "uint256",
          "name": "qualityTestId",
          "type": "uint256"
        },
        {
          "internalType": "string",
          "name": "object",
          "type": "string"
        },
        {
          "internalType": "uint256",
          "name": "objectCount",
          "type": "uint256"
        },
        {
          "internalType": "string",
          "name": "employee",
          "type": "string"
        },
        {
          "internalType": "uint256",
          "name": "testDate",
          "type": "uint256"
        }
      ],
      "payable": false,
      "stateMutability": "view",
      "type": "function"
    },
    {
      "constant": true,
      "inputs": [],
      "name": "GetQuality",
      "outputs": [
        {
          "components": [
            {
              "internalType": "uint256",
              "name": "qualityTestId",
              "type": "uint256"
            },
            {
              "internalType": "string",
              "name": "object",
              "type": "string"
            },
            {
              "internalType": "uint256",
              "name": "objectCount",
              "type": "uint256"
            },
            {
              "internalType": "string",
              "name": "employee",
              "type": "string"
            },
            {
              "internalType": "uint256",
              "name": "testDate",
              "type": "uint256"
            }
          ],
          "internalType": "struct QualitySecurity.QualityTest[]",
          "name": "",
          "type": "tuple[]"
        }
      ],
      "payable": false,
      "stateMutability": "view",
      "type": "function"
    },
    {
      "constant": true,
      "inputs": [],
      "name": "GetCertificate",
      "outputs": [
        {
          "components": [
            {
              "internalType": "uint256",
              "name": "certificateId",
              "type": "uint256"
            },
            {
              "internalType": "string",
              "name": "certificateType",
              "type": "string"
            },
            {
              "internalType": "string",
              "name": "employeeCertificate",
              "type": "string"
            },
            {
              "internalType": "uint256",
              "name": "certificateDate",
              "type": "uint256"
            }
          ],
          "internalType": "struct QualitySecurity.Certificate[]",
          "name": "",
          "type": "tuple[]"
        }
      ],
      "payable": false,
      "stateMutability": "view",
      "type": "function"
    },
    {
      "constant": true,
      "inputs": [],
      "name": "GetPermit",
      "outputs": [
        {
          "components": [
            {
              "internalType": "uint256",
              "name": "permitId",
              "type": "uint256"
            },
            {
              "internalType": "string",
              "name": "permitType",
              "type": "string"
            },
            {
              "internalType": "string",
              "name": "employeePermit",
              "type": "string"
            },
            {
              "internalType": "uint256",
              "name": "permitDate",
              "type": "uint256"
            }
          ],
          "internalType": "struct QualitySecurity.Permit[]",
          "name": "",
          "type": "tuple[]"
        }
      ],
      "payable": false,
      "stateMutability": "view",
      "type": "function"
    },
    {
      "constant": true,
      "inputs": [
        {
          "internalType": "uint256",
          "name": "index",
          "type": "uint256"
        }
      ],
      "name": "GetQualityIndex",
      "outputs": [
        {
          "components": [
            {
              "internalType": "uint256",
              "name": "qualityTestId",
              "type": "uint256"
            },
            {
              "internalType": "string",
              "name": "object",
              "type": "string"
            },
            {
              "internalType": "uint256",
              "name": "objectCount",
              "type": "uint256"
            },
            {
              "internalType": "string",
              "name": "employee",
              "type": "string"
            },
            {
              "internalType": "uint256",
              "name": "testDate",
              "type": "uint256"
            }
          ],
          "internalType": "struct QualitySecurity.QualityTest",
          "name": "",
          "type": "tuple"
        }
      ],
      "payable": false,
      "stateMutability": "view",
      "type": "function"
    },
    {
      "constant": true,
      "inputs": [
        {
          "internalType": "uint256",
          "name": "index",
          "type": "uint256"
        }
      ],
      "name": "GetCertificateIndex",
      "outputs": [
        {
          "components": [
            {
              "internalType": "uint256",
              "name": "certificateId",
              "type": "uint256"
            },
            {
              "internalType": "string",
              "name": "certificateType",
              "type": "string"
            },
            {
              "internalType": "string",
              "name": "employeeCertificate",
              "type": "string"
            },
            {
              "internalType": "uint256",
              "name": "certificateDate",
              "type": "uint256"
            }
          ],
          "internalType": "struct QualitySecurity.Certificate",
          "name": "",
          "type": "tuple"
        }
      ],
      "payable": false,
      "stateMutability": "view",
      "type": "function"
    },
    {
      "constant": true,
      "inputs": [
        {
          "internalType": "uint256",
          "name": "index",
          "type": "uint256"
        }
      ],
      "name": "GetPermitIndex",
      "outputs": [
        {
          "components": [
            {
              "internalType": "uint256",
              "name": "permitId",
              "type": "uint256"
            },
            {
              "internalType": "string",
              "name": "permitType",
              "type": "string"
            },
            {
              "internalType": "string",
              "name": "employeePermit",
              "type": "string"
            },
            {
              "internalType": "uint256",
              "name": "permitDate",
              "type": "uint256"
            }
          ],
          "internalType": "struct QualitySecurity.Permit",
          "name": "",
          "type": "tuple"
        }
      ],
      "payable": false,
      "stateMutability": "view",
      "type": "function"
    },
    {
      "constant": false,
      "inputs": [
        {
          "internalType": "uint256",
          "name": "door",
          "type": "uint256"
        },
        {
          "internalType": "uint256",
          "name": "cable",
          "type": "uint256"
        },
        {
          "internalType": "uint256",
          "name": "brake",
          "type": "uint256"
        },
        {
          "internalType": "uint256",
          "name": "battery",
          "type": "uint256"
        },
        {
          "internalType": "uint256",
          "name": "column",
          "type": "uint256"
        }
      ],
      "name": "createQuality",
      "outputs": [],
      "payable": false,
      "stateMutability": "nonpayable",
      "type": "function"
    }
  ],
  "bytecode": "0x6080604052336000806101000a81548173ffffffffffffffffffffffffffffffffffffffff021916908373ffffffffffffffffffffffffffffffffffffffff160217905550600180556040518060c001604052806040518060400160405280600581526020017f46656c697800000000000000000000000000000000000000000000000000000081525081526020016040518060400160405280600681526020017f436c61756465000000000000000000000000000000000000000000000000000081525081526020016040518060400160405280600581526020017f546f6d6d7900000000000000000000000000000000000000000000000000000081525081526020016040518060400160405280600481526020017f496e65730000000000000000000000000000000000000000000000000000000081525081526020016040518060400160405280600481526020017f457269630000000000000000000000000000000000000000000000000000000081525081526020016040518060400160405280600a81526020017f43687269737469616e65000000000000000000000000000000000000000000008152508152506005906006620001c5929190620001df565b506000600655348015620001d857600080fd5b5062000372565b82805482825590600052602060002090810192821562000233579160200282015b82811115620002325782518290805190602001906200022192919062000246565b509160200191906001019062000200565b5b509050620002429190620002cd565b5090565b828054600181600116156101000203166002900490600052602060002090601f016020900481019282601f106200028957805160ff1916838001178555620002ba565b82800160010185558215620002ba579182015b82811115620002b95782518255916020019190600101906200029c565b5b509050620002c99190620002fe565b5090565b620002fb91905b80821115620002f75760008181620002ed919062000326565b50600101620002d4565b5090565b90565b6200032391905b808211156200031f57600081600090555060010162000305565b5090565b90565b50805460018160011615610100020316600290046000825580601f106200034e57506200036f565b601f0160209004906000526020600020908101906200036e9190620002fe565b5b50565b611f3880620003826000396000f3fe608060405234801561001057600080fd5b506004361061009e5760003560e01c806395a7e9801161006657806395a7e98014610175578063a6438660146101a5578063b61e5474146101c1578063d737f41b146101f5578063dfe57514146102255761009e565b8063037387b2146100a35780633ca03fcc146100d3578063405d7eb414610106578063568913a214610124578063723f479814610142575b600080fd5b6100bd60048036036100b891908101906116b0565b610243565b6040516100ca9190611c83565b60405180910390f35b6100ed60048036036100e891908101906116b0565b6103d0565b6040516100fd9493929190611d04565b60405180910390f35b61010e61053d565b60405161011b9190611c3f565b60405180910390f35b61012c6106f4565b6040516101399190611c61565b60405180910390f35b61015c600480360361015791908101906116b0565b6108b5565b60405161016c9493929190611d04565b60405180910390f35b61018f600480360361018a91908101906116b0565b610a22565b60405161019c9190611cc7565b60405180910390f35b6101bf60048036036101ba91908101906116d9565b610bb9565b005b6101db60048036036101d691908101906116b0565b610c8f565b6040516101ec959493929190611d57565b60405180910390f35b61020f600480360361020a91908101906116b0565b610e02565b60405161021c9190611ca5565b60405180910390f35b61022d610f8f565b60405161023a9190611c1d565b60405180910390f35b61024b611577565b6003828154811061025857fe5b906000526020600020906004020160405180608001604052908160008201548152602001600182018054600181600116156101000203166002900480601f0160208091040260200160405190810160405280929190818152602001828054600181600116156101000203166002900480156103145780601f106102e957610100808354040283529160200191610314565b820191906000526020600020905b8154815290600101906020018083116102f757829003601f168201915b50505050508152602001600282018054600181600116156101000203166002900480601f0160208091040260200160405190810160405280929190818152602001828054600181600116156101000203166002900480156103b65780601f1061038b576101008083540402835291602001916103b6565b820191906000526020600020905b81548152906001019060200180831161039957829003601f168201915b505050505081526020016003820154815250509050919050565b600381815481106103dd57fe5b9060005260206000209060040201600091509050806000015490806001018054600181600116156101000203166002900480601f01602080910402602001604051908101604052809291908181526020018280546001816001161561010002031660029004801561048f5780601f106104645761010080835404028352916020019161048f565b820191906000526020600020905b81548152906001019060200180831161047257829003601f168201915b505050505090806002018054600181600116156101000203166002900480601f01602080910402602001604051908101604052809291908181526020018280546001816001161561010002031660029004801561052d5780601f106105025761010080835404028352916020019161052d565b820191906000526020600020905b81548152906001019060200180831161051057829003601f168201915b5050505050908060030154905084565b60606004805480602002602001604051908101604052809291908181526020016000905b828210156106eb578382906000526020600020906004020160405180608001604052908160008201548152602001600182018054600181600116156101000203166002900480601f0160208091040260200160405190810160405280929190818152602001828054600181600116156101000203166002900480156106275780601f106105fc57610100808354040283529160200191610627565b820191906000526020600020905b81548152906001019060200180831161060a57829003601f168201915b50505050508152602001600282018054600181600116156101000203166002900480601f0160208091040260200160405190810160405280929190818152602001828054600181600116156101000203166002900480156106c95780601f1061069e576101008083540402835291602001916106c9565b820191906000526020600020905b8154815290600101906020018083116106ac57829003601f168201915b5050505050815260200160038201548152505081526020019060010190610561565b50505050905090565b60606002805480602002602001604051908101604052809291908181526020016000905b828210156108ac57838290600052602060002090600502016040518060a001604052908160008201548152602001600182018054600181600116156101000203166002900480601f0160208091040260200160405190810160405280929190818152602001828054600181600116156101000203166002900480156107de5780601f106107b3576101008083540402835291602001916107de565b820191906000526020600020905b8154815290600101906020018083116107c157829003601f168201915b5050505050815260200160028201548152602001600382018054600181600116156101000203166002900480601f01602080910402602001604051908101604052809291908181526020018280546001816001161561010002031660029004801561088a5780601f1061085f5761010080835404028352916020019161088a565b820191906000526020600020905b81548152906001019060200180831161086d57829003601f168201915b5050505050815260200160048201548152505081526020019060010190610718565b50505050905090565b600481815481106108c257fe5b9060005260206000209060040201600091509050806000015490806001018054600181600116156101000203166002900480601f0160208091040260200160405190810160405280929190818152602001828054600181600116156101000203166002900480156109745780601f1061094957610100808354040283529160200191610974565b820191906000526020600020905b81548152906001019060200180831161095757829003601f168201915b505050505090806002018054600181600116156101000203166002900480601f016020809104026020016040519081016040528092919081815260200182805460018160011615610100020316600290048015610a125780601f106109e757610100808354040283529160200191610a12565b820191906000526020600020905b8154815290600101906020018083116109f557829003601f168201915b5050505050908060030154905084565b610a2a61159f565b60028281548110610a3757fe5b90600052602060002090600502016040518060a001604052908160008201548152602001600182018054600181600116156101000203166002900480601f016020809104026020016040519081016040528092919081815260200182805460018160011615610100020316600290048015610af35780601f10610ac857610100808354040283529160200191610af3565b820191906000526020600020905b815481529060010190602001808311610ad657829003601f168201915b5050505050815260200160028201548152602001600382018054600181600116156101000203166002900480601f016020809104026020016040519081016040528092919081815260200182805460018160011615610100020316600290048015610b9f5780601f10610b7457610100808354040283529160200191610b9f565b820191906000526020600020905b815481529060010190602001808311610b8257829003601f168201915b505050505081526020016004820154815250509050919050565b610bf86040518060400160405280600481526020017f446f6f720000000000000000000000000000000000000000000000000000000081525086611146565b610c376040518060400160405280600581526020017f4272616b6500000000000000000000000000000000000000000000000000000081525084611146565b610c766040518060400160405280600581526020017f4361626c6500000000000000000000000000000000000000000000000000000081525085611146565b610c7f81611227565b610c8882611339565b5050505050565b60028181548110610c9c57fe5b9060005260206000209060050201600091509050806000015490806001018054600181600116156101000203166002900480601f016020809104026020016040519081016040528092919081815260200182805460018160011615610100020316600290048015610d4e5780601f10610d2357610100808354040283529160200191610d4e565b820191906000526020600020905b815481529060010190602001808311610d3157829003601f168201915b505050505090806002015490806003018054600181600116156101000203166002900480601f016020809104026020016040519081016040528092919081815260200182805460018160011615610100020316600290048015610df25780601f10610dc757610100808354040283529160200191610df2565b820191906000526020600020905b815481529060010190602001808311610dd557829003601f168201915b5050505050908060040154905085565b610e0a6115ce565b60048281548110610e1757fe5b906000526020600020906004020160405180608001604052908160008201548152602001600182018054600181600116156101000203166002900480601f016020809104026020016040519081016040528092919081815260200182805460018160011615610100020316600290048015610ed35780601f10610ea857610100808354040283529160200191610ed3565b820191906000526020600020905b815481529060010190602001808311610eb657829003601f168201915b50505050508152602001600282018054600181600116156101000203166002900480601f016020809104026020016040519081016040528092919081815260200182805460018160011615610100020316600290048015610f755780601f10610f4a57610100808354040283529160200191610f75565b820191906000526020600020905b815481529060010190602001808311610f5857829003601f168201915b505050505081526020016003820154815250509050919050565b60606003805480602002602001604051908101604052809291908181526020016000905b8282101561113d578382906000526020600020906004020160405180608001604052908160008201548152602001600182018054600181600116156101000203166002900480601f0160208091040260200160405190810160405280929190818152602001828054600181600116156101000203166002900480156110795780601f1061104e57610100808354040283529160200191611079565b820191906000526020600020905b81548152906001019060200180831161105c57829003601f168201915b50505050508152602001600282018054600181600116156101000203166002900480601f01602080910402602001604051908101604052809291908181526020018280546001816001161561010002031660029004801561111b5780601f106110f05761010080835404028352916020019161111b565b820191906000526020600020905b8154815290600101906020018083116110fe57829003601f168201915b5050505050815260200160038201548152505081526020019060010190610fb3565b50505050905090565b61114e61159f565b6001548160000181815250508281602001819052508181604001818152505061117561144b565b816060018190525042816080018181525050600160008154809291906001019190505550600281908060018154018082558091505090600182039060005260206000209060050201600090919290919091506000820151816000015560208201518160010190805190602001906111ed9291906115f6565b506040820151816002015560608201518160030190805190602001906112149291906115f6565b5060808201518160040155505050505050565b60008090505b818110156113355761123d611577565b61124561152f565b8160000181815250506040518060400160405280600681526020017f436f6c756d6e0000000000000000000000000000000000000000000000000000815250816020018190525061129461144b565b8160400181905250814201816060018181525050600381908060018154018082558091505090600182039060005260206000209060040201600090919290919091506000820151816000015560208201518160010190805190602001906112fc9291906115f6565b5060408201518160020190805190602001906113199291906115f6565b506060820151816003015550505050808060010191505061122d565b5050565b60008090505b818110156114475761134f6115ce565b61135761152f565b8160000181815250506040518060400160405280600781526020017f426174746572790000000000000000000000000000000000000000000000000081525081602001819052506113a661144b565b81604001819052508142018160600181815250506004819080600181540180825580915050906001820390600052602060002090600402016000909192909190915060008201518160000155602082015181600101908051906020019061140e9291906115f6565b50604082015181600201908051906020019061142b9291906115f6565b506060820151816003015550505050808060010191505061133f565b5050565b60608060056006548154811061145d57fe5b906000526020600020018054600181600116156101000203166002900480601f0160208091040260200160405190810160405280929190818152602001828054600181600116156101000203166002900480156114fb5780601f106114d0576101008083540402835291602001916114fb565b820191906000526020600020905b8154815290600101906020018083116114de57829003601f168201915b50505050509050600660008154809291906001019190505550600560065411156115285760006006819055505b8091505090565b600080426040516020016115439190611ce9565b6040516020818303038152906040528051906020012060001c905068056bc75e2d63100000818161157057fe5b0691505090565b6040518060800160405280600081526020016060815260200160608152602001600081525090565b6040518060a0016040528060008152602001606081526020016000815260200160608152602001600081525090565b6040518060800160405280600081526020016060815260200160608152602001600081525090565b828054600181600116156101000203166002900490600052602060002090601f016020900481019282601f1061163757805160ff1916838001178555611665565b82800160010185558215611665579182015b82811115611664578251825591602001919060010190611649565b5b5090506116729190611676565b5090565b61169891905b8082111561169457600081600090555060010161167c565b5090565b90565b6000813590506116aa81611ede565b92915050565b6000602082840312156116c257600080fd5b60006116d08482850161169b565b91505092915050565b600080600080600060a086880312156116f157600080fd5b60006116ff8882890161169b565b95505060206117108882890161169b565b94505060406117218882890161169b565b93505060606117328882890161169b565b92505060806117438882890161169b565b9150509295509295909350565b600061175c83836119c7565b905092915050565b60006117708383611a9b565b905092915050565b60006117848383611b82565b905092915050565b600061179782611de8565b6117a18185611e3b565b9350836020820285016117b385611db8565b8060005b858110156117ef57848403895281516117d08582611750565b94506117db83611e14565b925060208a019950506001810190506117b7565b50829750879550505050505092915050565b600061180c82611df3565b6118168185611e4c565b93508360208202850161182885611dc8565b8060005b8581101561186457848403895281516118458582611764565b945061185083611e21565b925060208a0199505060018101905061182c565b50829750879550505050505092915050565b600061188182611dfe565b61188b8185611e5d565b93508360208202850161189d85611dd8565b8060005b858110156118d957848403895281516118ba8582611778565b94506118c583611e2e565b925060208a019950506001810190506118a1565b50829750879550505050505092915050565b60006118f682611e09565b6119008185611e6e565b9350611910818560208601611e9a565b61191981611ecd565b840191505092915050565b600061192f82611e09565b6119398185611e7f565b9350611949818560208601611e9a565b61195281611ecd565b840191505092915050565b60006080830160008301516119756000860182611bff565b506020830151848203602086015261198d82826118eb565b915050604083015184820360408601526119a782826118eb565b91505060608301516119bc6060860182611bff565b508091505092915050565b60006080830160008301516119df6000860182611bff565b50602083015184820360208601526119f782826118eb565b91505060408301518482036040860152611a1182826118eb565b9150506060830151611a266060860182611bff565b508091505092915050565b6000608083016000830151611a496000860182611bff565b5060208301518482036020860152611a6182826118eb565b91505060408301518482036040860152611a7b82826118eb565b9150506060830151611a906060860182611bff565b508091505092915050565b6000608083016000830151611ab36000860182611bff565b5060208301518482036020860152611acb82826118eb565b91505060408301518482036040860152611ae582826118eb565b9150506060830151611afa6060860182611bff565b508091505092915050565b600060a083016000830151611b1d6000860182611bff565b5060208301518482036020860152611b3582826118eb565b9150506040830151611b4a6040860182611bff565b5060608301518482036060860152611b6282826118eb565b9150506080830151611b776080860182611bff565b508091505092915050565b600060a083016000830151611b9a6000860182611bff565b5060208301518482036020860152611bb282826118eb565b9150506040830151611bc76040860182611bff565b5060608301518482036060860152611bdf82826118eb565b9150506080830151611bf46080860182611bff565b508091505092915050565b611c0881611e90565b82525050565b611c1781611e90565b82525050565b60006020820190508181036000830152611c37818461178c565b905092915050565b60006020820190508181036000830152611c598184611801565b905092915050565b60006020820190508181036000830152611c7b8184611876565b905092915050565b60006020820190508181036000830152611c9d818461195d565b905092915050565b60006020820190508181036000830152611cbf8184611a31565b905092915050565b60006020820190508181036000830152611ce18184611b05565b905092915050565b6000602082019050611cfe6000830184611c0e565b92915050565b6000608082019050611d196000830187611c0e565b8181036020830152611d2b8186611924565b90508181036040830152611d3f8185611924565b9050611d4e6060830184611c0e565b95945050505050565b600060a082019050611d6c6000830188611c0e565b8181036020830152611d7e8187611924565b9050611d8d6040830186611c0e565b8181036060830152611d9f8185611924565b9050611dae6080830184611c0e565b9695505050505050565b6000819050602082019050919050565b6000819050602082019050919050565b6000819050602082019050919050565b600081519050919050565b600081519050919050565b600081519050919050565b600081519050919050565b6000602082019050919050565b6000602082019050919050565b6000602082019050919050565b600082825260208201905092915050565b600082825260208201905092915050565b600082825260208201905092915050565b600082825260208201905092915050565b600082825260208201905092915050565b6000819050919050565b60005b83811015611eb8578082015181840152602081019050611e9d565b83811115611ec7576000848401525b50505050565b6000601f19601f8301169050919050565b611ee781611e90565b8114611ef257600080fd5b5056fea365627a7a723158204dfb9bac47b8662306dbf1a22976f5116b0377476ff4a9648048054eb00071ba6c6578706572696d656e74616cf564736f6c63430005100040",
  "source": "// SPDX-License-Identifier: GPL-3.0\npragma solidity >=0.5.0;\npragma experimental ABIEncoderV2;\n\ncontract QualitySecurity {\n    \n    address qualityId = msg.sender;\n    \n    struct QualityTest{\n        uint qualityTestId;\n        string object;\n        uint objectCount;\n        string employee;\n        uint testDate;\n        \n    }\n    \n    struct Certificate{\n        uint certificateId;\n        string certificateType;\n        string employeeCertificate;\n        uint certificateDate;\n\n    }\n    \n    struct Permit{\n        uint permitId;\n        string permitType;\n        string employeePermit;\n        uint permitDate;\n    }\n\n    uint qualityTestId = 1;\n    \n    QualityTest[] public qualityList;\n    \n    Certificate[] public certificateList;\n    \n    Permit[] public permitList;\n    \n    string[] employeeList = [\"Felix\",\"Claude\",\"Tommy\",\"Ines\",\"Eric\",\"Christiane\"];\n    uint employeeNumber = 0;\n\n\n    function selectEmployee() private returns(string memory){\n        string memory employee = employeeList[employeeNumber];\n        employeeNumber++;\n        if (employeeNumber > 5) {\n            employeeNumber = 0;\n        }\n        return employee;\n    }\n    \n    function makeTest(string memory item,uint number) private{\n        QualityTest memory new_quality;\n        new_quality.qualityTestId = qualityTestId;\n        new_quality.object = item;\n        new_quality.objectCount = number;\n        new_quality.employee = selectEmployee();\n        new_quality.testDate = block.timestamp;\n        qualityTestId++;\n        qualityList.push(new_quality);\n    }\n    \n    function genRandom() private view returns (uint) {\n        uint rand = uint(keccak256(abi.encode(block.timestamp)));\n        return uint(rand % (10 ** 20));\n    }\n    \n    \n    function makeCertificate(uint number) private{\n        for(uint i=0; i<number; i++){\n            Certificate memory new_certificate;\n            new_certificate.certificateId = genRandom();\n            new_certificate.certificateType = \"Column\";\n            new_certificate.employeeCertificate = selectEmployee();\n            new_certificate.certificateDate = block.timestamp + i;\n            certificateList.push(new_certificate);\n        }\n    }\n    \n    function makePermit(uint number) private{\n        for(uint i=0; i<number; i++){\n            Permit memory new_permit;\n            new_permit.permitId = genRandom();\n            new_permit.permitType = \"Battery\";\n            new_permit.employeePermit = selectEmployee();\n            new_permit.permitDate = block.timestamp + i;\n            permitList.push(new_permit);\n        }\n        \n    }\n    \n    function GetQuality() public view returns(QualityTest[] memory){\n        return qualityList;\n    }\n    \n    function GetCertificate() public view returns(Certificate[] memory){\n        return certificateList;\n    }\n    \n    function GetPermit() public view returns(Permit[] memory){\n        return permitList;\n    }\n    \n    function GetQualityIndex(uint index) public view returns(QualityTest memory){\n        return qualityList[index];\n    }\n    \n    function GetCertificateIndex(uint index) public view returns(Certificate memory){\n        return certificateList[index];\n    }\n    \n    function GetPermitIndex(uint index) public view returns(Permit memory){\n        return permitList[index];\n    }\n    \n    \n     function createQuality(uint door, uint cable, uint brake, uint battery, uint column) public{\n        makeTest(\"Door\",door);\n        makeTest(\"Brake\",brake);\n        makeTest(\"Cable\",cable);\n        makeCertificate(column);\n        makePermit(battery);\n         \n         \n     }\n    \n\n}",
  "sourcePath": "/home/cristiane/blockchain/drizzle-react-tutorial/contracts/QualitySecurity.sol",
  "compiler": {
    "name": "solc",
    "version": "0.5.16+commit.9c3226ce.Emscripten.clang"
  },
  "schemaVersion": "3.3.4",
  "updatedAt": "2021-04-16T20:49:28.866Z",
  "networkType": "ethereum",
  "devdoc": {
    "methods": {}
  },
  "userdoc": {
    "methods": {}
  }
}