{
  "contractName": "SolutionManufacturing",
  "abi": [
    {
      "constant": true,
      "inputs": [],
      "name": "myAddress",
      "outputs": [
        {
          "internalType": "address",
          "name": "",
          "type": "address"
        }
      ],
      "payable": false,
      "stateMutability": "view",
      "type": "function"
    },
    {
      "constant": true,
      "inputs": [],
      "name": "productListCount",
      "outputs": [
        {
          "internalType": "uint64",
          "name": "",
          "type": "uint64"
        }
      ],
      "payable": false,
      "stateMutability": "view",
      "type": "function"
    },
    {
      "constant": true,
      "inputs": [
        {
          "internalType": "uint64",
          "name": "",
          "type": "uint64"
        }
      ],
      "name": "products",
      "outputs": [
        {
          "internalType": "address",
          "name": "productId",
          "type": "address"
        },
        {
          "internalType": "bytes32",
          "name": "commandId",
          "type": "bytes32"
        },
        {
          "internalType": "uint64",
          "name": "elevatorCab",
          "type": "uint64"
        },
        {
          "internalType": "uint64",
          "name": "doors",
          "type": "uint64"
        },
        {
          "internalType": "uint64",
          "name": "controller",
          "type": "uint64"
        },
        {
          "internalType": "uint64",
          "name": "controlPanel",
          "type": "uint64"
        },
        {
          "internalType": "uint64",
          "name": "display",
          "type": "uint64"
        },
        {
          "internalType": "uint64",
          "name": "musicSystem",
          "type": "uint64"
        }
      ],
      "payable": false,
      "stateMutability": "view",
      "type": "function"
    },
    {
      "constant": true,
      "inputs": [],
      "name": "getContractAddress",
      "outputs": [
        {
          "internalType": "address",
          "name": "",
          "type": "address"
        }
      ],
      "payable": false,
      "stateMutability": "view",
      "type": "function"
    },
    {
      "constant": false,
      "inputs": [
        {
          "internalType": "uint64",
          "name": "aluminiumBars",
          "type": "uint64"
        },
        {
          "internalType": "uint64",
          "name": "stainlessSteelSheets",
          "type": "uint64"
        },
        {
          "internalType": "uint64",
          "name": "bumperRubberBands",
          "type": "uint64"
        },
        {
          "internalType": "uint64",
          "name": "displayLeds",
          "type": "uint64"
        },
        {
          "internalType": "uint64",
          "name": "springs",
          "type": "uint64"
        },
        {
          "internalType": "uint64",
          "name": "speakers",
          "type": "uint64"
        }
      ],
      "name": "getCommand",
      "outputs": [
        {
          "internalType": "uint64",
          "name": "",
          "type": "uint64"
        },
        {
          "internalType": "uint64",
          "name": "",
          "type": "uint64"
        },
        {
          "internalType": "uint64",
          "name": "",
          "type": "uint64"
        },
        {
          "internalType": "uint64",
          "name": "",
          "type": "uint64"
        },
        {
          "internalType": "uint64",
          "name": "",
          "type": "uint64"
        },
        {
          "internalType": "uint64",
          "name": "",
          "type": "uint64"
        }
      ],
      "payable": false,
      "stateMutability": "nonpayable",
      "type": "function"
    }
  ],
  "bytecode": "0x608060405260008060006101000a81548167ffffffffffffffff021916908367ffffffffffffffff16021790555030600260006101000a81548173ffffffffffffffffffffffffffffffffffffffff021916908373ffffffffffffffffffffffffffffffffffffffff16021790555034801561007a57600080fd5b50610c0a8061008a6000396000f3fe608060405234801561001057600080fd5b50600436106100575760003560e01c806326b85ee11461005c57806332a2c5d0146100a65780633bda856f146100f0578063725a5e9b14610122578063b2e9eb1214610243575b600080fd5b61006461038e565b604051808273ffffffffffffffffffffffffffffffffffffffff1673ffffffffffffffffffffffffffffffffffffffff16815260200191505060405180910390f35b6100ae6103b4565b604051808273ffffffffffffffffffffffffffffffffffffffff1673ffffffffffffffffffffffffffffffffffffffff16815260200191505060405180910390f35b6100f86103bc565b604051808267ffffffffffffffff1667ffffffffffffffff16815260200191505060405180910390f35b6101586004803603602081101561013857600080fd5b81019080803567ffffffffffffffff1690602001909291905050506103d5565b604051808973ffffffffffffffffffffffffffffffffffffffff1673ffffffffffffffffffffffffffffffffffffffff1681526020018881526020018767ffffffffffffffff1667ffffffffffffffff1681526020018667ffffffffffffffff1667ffffffffffffffff1681526020018567ffffffffffffffff1667ffffffffffffffff1681526020018467ffffffffffffffff1667ffffffffffffffff1681526020018367ffffffffffffffff1667ffffffffffffffff1681526020018267ffffffffffffffff1667ffffffffffffffff1681526020019850505050505050505060405180910390f35b6102dd600480360360c081101561025957600080fd5b81019080803567ffffffffffffffff169060200190929190803567ffffffffffffffff169060200190929190803567ffffffffffffffff169060200190929190803567ffffffffffffffff169060200190929190803567ffffffffffffffff169060200190929190803567ffffffffffffffff1690602001909291905050506104b5565b604051808767ffffffffffffffff1667ffffffffffffffff1681526020018667ffffffffffffffff1667ffffffffffffffff1681526020018567ffffffffffffffff1667ffffffffffffffff1681526020018467ffffffffffffffff1667ffffffffffffffff1681526020018367ffffffffffffffff1667ffffffffffffffff1681526020018267ffffffffffffffff1667ffffffffffffffff168152602001965050505050505060405180910390f35b600260009054906101000a900473ffffffffffffffffffffffffffffffffffffffff1681565b600030905090565b6000809054906101000a900467ffffffffffffffff1681565b60016020528060005260406000206000915090508060000160009054906101000a900473ffffffffffffffffffffffffffffffffffffffff16908060010154908060020160009054906101000a900467ffffffffffffffff16908060020160089054906101000a900467ffffffffffffffff16908060020160109054906101000a900467ffffffffffffffff16908060020160189054906101000a900467ffffffffffffffff16908060030160009054906101000a900467ffffffffffffffff16908060030160089054906101000a900467ffffffffffffffff16905088565b6000806000806000806000600b8c67ffffffffffffffff16816104d457fe5b04905060006002820267ffffffffffffffff168c67ffffffffffffffff16106104fe576002820290505b60008267ffffffffffffffff168c67ffffffffffffffff161061051f578290505b60006005840267ffffffffffffffff168c67ffffffffffffffff1610610543578390505b6000600885029050600060028d67ffffffffffffffff168161056157fe5b04905061056c610b3b565b33816000019073ffffffffffffffffffffffffffffffffffffffff16908173ffffffffffffffffffffffffffffffffffffffff168152505086816040019067ffffffffffffffff16908167ffffffffffffffff168152505085816060019067ffffffffffffffff16908167ffffffffffffffff168152505084816080019067ffffffffffffffff16908167ffffffffffffffff1681525050838160a0019067ffffffffffffffff16908167ffffffffffffffff1681525050828160c0019067ffffffffffffffff16908167ffffffffffffffff1681525050818160e0019067ffffffffffffffff16908167ffffffffffffffff1681525050600061068c8260400151836060015184608001518560a001518660c001518760e00151610a66565b90508082602001818152505060008081819054906101000a900467ffffffffffffffff168092919060010191906101000a81548167ffffffffffffffff021916908367ffffffffffffffff1602179055505081600160008060009054906101000a900467ffffffffffffffff1667ffffffffffffffff1667ffffffffffffffff16815260200190815260200160002060008201518160000160006101000a81548173ffffffffffffffffffffffffffffffffffffffff021916908373ffffffffffffffffffffffffffffffffffffffff1602179055506020820151816001015560408201518160020160006101000a81548167ffffffffffffffff021916908367ffffffffffffffff16021790555060608201518160020160086101000a81548167ffffffffffffffff021916908367ffffffffffffffff16021790555060808201518160020160106101000a81548167ffffffffffffffff021916908367ffffffffffffffff16021790555060a08201518160020160186101000a81548167ffffffffffffffff021916908367ffffffffffffffff16021790555060c08201518160030160006101000a81548167ffffffffffffffff021916908367ffffffffffffffff16021790555060e08201518160030160086101000a81548167ffffffffffffffff021916908367ffffffffffffffff1602179055509050506003829080600181540180825580915050906001820390600052602060002090600402016000909192909190915060008201518160000160006101000a81548173ffffffffffffffffffffffffffffffffffffffff021916908373ffffffffffffffffffffffffffffffffffffffff1602179055506020820151816001015560408201518160020160006101000a81548167ffffffffffffffff021916908367ffffffffffffffff16021790555060608201518160020160086101000a81548167ffffffffffffffff021916908367ffffffffffffffff16021790555060808201518160020160106101000a81548167ffffffffffffffff021916908367ffffffffffffffff16021790555060a08201518160020160186101000a81548167ffffffffffffffff021916908367ffffffffffffffff16021790555060c08201518160030160006101000a81548167ffffffffffffffff021916908367ffffffffffffffff16021790555060e08201518160030160086101000a81548167ffffffffffffffff021916908367ffffffffffffffff1602179055505050508160400151826060015183608001518460a001518560c001518660e001519d509d509d509d509d509d50505050505050505096509650965096509650969050565b6000868686868686604051602001808767ffffffffffffffff1667ffffffffffffffff1681526020018667ffffffffffffffff1667ffffffffffffffff1681526020018567ffffffffffffffff1667ffffffffffffffff1681526020018467ffffffffffffffff1667ffffffffffffffff1681526020018367ffffffffffffffff1667ffffffffffffffff1681526020018267ffffffffffffffff1667ffffffffffffffff16815260200196505050505050506040516020818303038152906040528051906020012090509695505050505050565b604051806101000160405280600073ffffffffffffffffffffffffffffffffffffffff16815260200160008019168152602001600067ffffffffffffffff168152602001600067ffffffffffffffff168152602001600067ffffffffffffffff168152602001600067ffffffffffffffff168152602001600067ffffffffffffffff168152602001600067ffffffffffffffff168152509056fea265627a7a723158201a8a3a66af9fac5e97828d98880fb75d4a2677a5eb6450c77ddecf3a3c23fa7c64736f6c63430005100032",
  "source": "// SPDX-License-Identifier: MIT\npragma solidity >=0.5.0;\n\ncontract SolutionManufacturing {\n    \n    struct Products{\n        \n        address productId;\n        bytes32 commandId;\n        uint64 elevatorCab;\n        uint64 doors;\n        uint64 controller;\n        uint64 controlPanel;\n        uint64 display;\n        uint64 musicSystem;\n    }\n    uint64 public productListCount = 0;\n    \n    mapping(uint64 => Products) public products;\n    \n    address public myAddress = address(this);\n    \n    function getContractAddress()public view returns(address){\n        return address(this);\n    }\n    \n    Products[] productList;\n    \n    \n        // INHERITANCE\t         ITEM\t\t              CALCULUS\t\t   TOTAL\n        // ElevatorCab  \taluminiumBars\t            10 per cab\t         80\n        // ElevatorCab  \tstainlessSteelSheets\t    8 per cab\t         64\n        // ElevatorCab\t    interiorLightBulbs      \t4 per cab\t         32\n        \n        // Doors\t        aluminiumBars\t\t        6 per doors     \t 48\n        // Doors    \t    stainlessSteelSheets        2 per doors     \t 16\n        // Doors\t\t     bumperRubberBands\t        2 per doors          16\n        \n        // Controller\t    displayLeds \t            1 per controller      8\n        // Controller\t    stainlessSteelSheets\t\t1 per controller\t  8\n        \n        // ControlPanel\t    displayLeds\t\t            1 per panel\t\t      8\n        // ControlPanel\t        Springs\t\t            5 per panel  \t     40\n\n        \n        // Display\t\t    displayLeds\t\t            1 per display\t\t 48\n        // Display\t\t    interiorLightBulbs          2 per display\t\t 96\n\n        \n        // MusicSystem\t        speakers\t            2 per musicsystem\t 16\n        // MusicSystem\t\tinteriorLightBulbs          2 per musicsystem\t 96\n        \n        //*** for each 11 stainlessSteelSheets, we build 1 ElevatorCab,so 1 of each other items to ***//\n        \n    function getUniqueHash(uint64 elevatorCab, uint64 doors, uint64 controller, uint64 controlPanel, uint64 display, uint64 musicSystem) private pure returns (bytes32){\n        return keccak256(abi.encode(elevatorCab, doors,controller, controlPanel, display, musicSystem));   \n    }\n\n    function getCommand(uint64 aluminiumBars, uint64 stainlessSteelSheets, uint64 bumperRubberBands, uint64 displayLeds, uint64 springs, uint64 speakers) public returns (uint64, uint64, uint64, uint64, uint64, uint64){\n        \n        uint64 nbElevator = stainlessSteelSheets / 11 ;\n        uint64 nbDoors;\n        if (bumperRubberBands >= nbElevator * 2){\n            nbDoors = nbElevator * 2 ;\n        }\n        uint64 nbController;\n        if (displayLeds >= nbElevator){\n            nbController = nbElevator ;\n        }\n        uint64 nbControlPanel;\n        if (springs >= nbElevator * 5){\n            nbControlPanel = nbElevator;\n        }\n        uint64 nbDisplay = nbElevator * 8 ;\n        uint64 nbMusicSystem = speakers / 2 ;\n    \n        Products memory new_product;\n        new_product.productId = msg.sender;\n        new_product.elevatorCab = nbElevator;\n        new_product.doors = nbDoors;\n        new_product.controller = nbController;\n        new_product.controlPanel = nbControlPanel;\n        new_product.display = nbDisplay;\n        new_product.musicSystem = nbMusicSystem;\n        bytes32 commandId = getUniqueHash(new_product.elevatorCab, new_product.doors, new_product.controller, new_product.controlPanel, new_product.display, new_product.musicSystem);\n        new_product.commandId = commandId;\n        productListCount++;\n        products[productListCount] = new_product;\n        productList.push(new_product);\n        return (new_product.elevatorCab, new_product.doors, new_product.controller, new_product.controlPanel, new_product.display, new_product.musicSystem);\n    }\n}\n\n",
  "sourcePath": "/home/cristiane/blockchain/drizzle-react-tutorial/contracts/SolutionManufacturing.sol",
  "compiler": {
    "name": "solc",
    "version": "0.5.16+commit.9c3226ce.Emscripten.clang"
  },
  "schemaVersion": "3.3.4",
  "updatedAt": "2021-04-16T18:25:42.033Z",
  "networkType": "ethereum",
  "devdoc": {
    "methods": {}
  },
  "userdoc": {
    "methods": {}
  }
}